{
  "address": "0x92B1696f7FFA999cd3329b4F2BCcCa2Fb8Ca2839",
  "abi": [
    {
      "inputs": [
        {
          "internalType": "contract ILootXP",
          "name": "lootXP",
          "type": "address"
        },
        {
          "internalType": "address[3]",
          "name": "authorizedLoots",
          "type": "address[3]"
        },
        {
          "internalType": "contract ILoot",
          "name": "loot",
          "type": "address"
        },
        {
          "internalType": "bool",
          "name": "winnerGetLoot",
          "type": "bool"
        },
        {
          "internalType": "uint8",
          "name": "commit3HPeriod",
          "type": "uint8"
        },
        {
          "internalType": "uint8",
          "name": "reveal3HPeriod",
          "type": "uint8"
        },
        {
          "internalType": "uint8",
          "name": "winner3HPeriod",
          "type": "uint8"
        }
      ],
      "stateMutability": "nonpayable",
      "type": "constructor"
    },
    {
      "anonymous": false,
      "inputs": [
        {
          "indexed": true,
          "internalType": "address",
          "name": "loot",
          "type": "address"
        },
        {
          "indexed": false,
          "internalType": "bool",
          "name": "winnerGetLoot",
          "type": "bool"
        },
        {
          "indexed": false,
          "internalType": "uint8",
          "name": "commit3HPeriod",
          "type": "uint8"
        },
        {
          "indexed": false,
          "internalType": "uint8",
          "name": "reveal3HPeriod",
          "type": "uint8"
        },
        {
          "indexed": false,
          "internalType": "uint8",
          "name": "winner3HPeriod",
          "type": "uint8"
        },
        {
          "indexed": false,
          "internalType": "address",
          "name": "newYooLoot",
          "type": "address"
        },
        {
          "indexed": false,
          "internalType": "bool",
          "name": "authorizedAsXPSource",
          "type": "bool"
        }
      ],
      "name": "Cloned",
      "type": "event"
    },
    {
      "anonymous": false,
      "inputs": [
        {
          "indexed": true,
          "internalType": "address",
          "name": "player",
          "type": "address"
        },
        {
          "indexed": true,
          "internalType": "uint256",
          "name": "lootId",
          "type": "uint256"
        }
      ],
      "name": "LootDeckCanceled",
      "type": "event"
    },
    {
      "anonymous": false,
      "inputs": [
        {
          "indexed": true,
          "internalType": "uint256",
          "name": "lootId",
          "type": "uint256"
        },
        {
          "indexed": false,
          "internalType": "uint8[8]",
          "name": "deck",
          "type": "uint8[8]"
        }
      ],
      "name": "LootDeckRevealed",
      "type": "event"
    },
    {
      "anonymous": false,
      "inputs": [
        {
          "indexed": true,
          "internalType": "address",
          "name": "player",
          "type": "address"
        },
        {
          "indexed": true,
          "internalType": "uint256",
          "name": "lootId",
          "type": "uint256"
        },
        {
          "indexed": false,
          "internalType": "bytes32",
          "name": "deckHash",
          "type": "bytes32"
        }
      ],
      "name": "LootDeckSubmitted",
      "type": "event"
    },
    {
      "anonymous": false,
      "inputs": [
        {
          "indexed": true,
          "internalType": "address",
          "name": "player",
          "type": "address"
        },
        {
          "indexed": true,
          "internalType": "uint256",
          "name": "lootId",
          "type": "uint256"
        },
        {
          "indexed": false,
          "internalType": "uint256",
          "name": "xpGaimed",
          "type": "uint256"
        }
      ],
      "name": "LootWithdrawn",
      "type": "event"
    },
    {
      "anonymous": false,
      "inputs": [
        {
          "indexed": true,
          "internalType": "address",
          "name": "winner",
          "type": "address"
        },
        {
          "indexed": true,
          "internalType": "address",
          "name": "playerPastOwner",
          "type": "address"
        },
        {
          "indexed": true,
          "internalType": "uint256",
          "name": "lootId",
          "type": "uint256"
        }
      ],
      "name": "WinnerWithdrawal",
      "type": "event"
    },
    {
      "inputs": [
        {
          "internalType": "uint256",
          "name": "oldLootId",
          "type": "uint256"
        }
      ],
      "name": "cancelDeck",
      "outputs": [],
      "stateMutability": "nonpayable",
      "type": "function"
    },
    {
      "inputs": [
        {
          "internalType": "uint256",
          "name": "oldLootId",
          "type": "uint256"
        },
        {
          "internalType": "uint256",
          "name": "lootId",
          "type": "uint256"
        },
        {
          "internalType": "bytes32",
          "name": "deckHash",
          "type": "bytes32"
        }
      ],
      "name": "changeDeck",
      "outputs": [],
      "stateMutability": "nonpayable",
      "type": "function"
    },
    {
      "inputs": [
        {
          "internalType": "contract IERC20",
          "name": "token",
          "type": "address"
        }
      ],
      "name": "claimVictoryERC20",
      "outputs": [],
      "stateMutability": "nonpayable",
      "type": "function"
    },
    {
      "inputs": [
        {
          "internalType": "uint256",
          "name": "lootToPick",
          "type": "uint256"
        }
      ],
      "name": "claimVictoryLoot",
      "outputs": [],
      "stateMutability": "nonpayable",
      "type": "function"
    },
    {
      "inputs": [
        {
          "internalType": "contract ILoot",
          "name": "loot",
          "type": "address"
        },
        {
          "internalType": "bool",
          "name": "winnerGetLoot",
          "type": "bool"
        },
        {
          "internalType": "uint8",
          "name": "commit3HPeriod",
          "type": "uint8"
        },
        {
          "internalType": "uint8",
          "name": "reveal3HPeriod",
          "type": "uint8"
        },
        {
          "internalType": "uint8",
          "name": "winner3HPeriod",
          "type": "uint8"
        }
      ],
      "name": "clone",
      "outputs": [
        {
          "internalType": "address",
          "name": "",
          "type": "address"
        }
      ],
      "stateMutability": "nonpayable",
      "type": "function"
    },
    {
      "inputs": [
        {
          "internalType": "uint256",
          "name": "lootId",
          "type": "uint256"
        },
        {
          "internalType": "bytes32",
          "name": "deckHash",
          "type": "bytes32"
        }
      ],
      "name": "commitLootDeck",
      "outputs": [],
      "stateMutability": "nonpayable",
      "type": "function"
    },
    {
      "inputs": [
        {
          "internalType": "uint256",
          "name": "",
          "type": "uint256"
        }
      ],
      "name": "deckHashes",
      "outputs": [
        {
          "internalType": "bytes32",
          "name": "",
          "type": "bytes32"
        }
      ],
      "stateMutability": "view",
      "type": "function"
    },
    {
      "inputs": [
        {
          "internalType": "uint256",
          "name": "",
          "type": "uint256"
        }
      ],
      "name": "deposits",
      "outputs": [
        {
          "internalType": "address",
          "name": "",
          "type": "address"
        }
      ],
      "stateMutability": "view",
      "type": "function"
    },
    {
      "inputs": [
        {
          "internalType": "contract ILoot",
          "name": "loot",
          "type": "address"
        },
        {
          "internalType": "bool",
          "name": "winnerGetLoot",
          "type": "bool"
        },
        {
          "internalType": "uint8",
          "name": "commit3HPeriod",
          "type": "uint8"
        },
        {
          "internalType": "uint8",
          "name": "reveal3HPeriod",
          "type": "uint8"
        },
        {
          "internalType": "uint8",
          "name": "winner3HPeriod",
          "type": "uint8"
        }
      ],
      "name": "freeFormClone",
      "outputs": [
        {
          "internalType": "address",
          "name": "",
          "type": "address"
        }
      ],
      "stateMutability": "nonpayable",
      "type": "function"
    },
    {
      "inputs": [
        {
          "internalType": "contract ILoot",
          "name": "loot",
          "type": "address"
        },
        {
          "internalType": "bool",
          "name": "winnerGetLoot",
          "type": "bool"
        },
        {
          "internalType": "uint8",
          "name": "commit3HPeriod",
          "type": "uint8"
        },
        {
          "internalType": "uint8",
          "name": "reveal3HPeriod",
          "type": "uint8"
        },
        {
          "internalType": "uint8",
          "name": "winner3HPeriod",
          "type": "uint8"
        }
      ],
      "name": "freeFormInit",
      "outputs": [],
      "stateMutability": "nonpayable",
      "type": "function"
    },
    {
      "inputs": [
        {
          "internalType": "uint256",
          "name": "lootId",
          "type": "uint256"
        },
        {
          "internalType": "uint8[8]",
          "name": "deckWithStartIndex1",
          "type": "uint8[8]"
        },
        {
          "internalType": "bool",
          "name": "lootForEveryone",
          "type": "bool"
        }
      ],
      "name": "getDeckPower",
      "outputs": [
        {
          "internalType": "uint8[8]",
          "name": "deckPower",
          "type": "uint8[8]"
        }
      ],
      "stateMutability": "pure",
      "type": "function"
    },
    {
      "inputs": [
        {
          "internalType": "uint256",
          "name": "id",
          "type": "uint256"
        }
      ],
      "name": "getTokenData",
      "outputs": [
        {
          "components": [
            {
              "internalType": "uint256",
              "name": "id",
              "type": "uint256"
            },
            {
              "internalType": "string",
              "name": "tokenURI",
              "type": "string"
            },
            {
              "internalType": "uint8[8]",
              "name": "deckPower",
              "type": "uint8[8]"
            }
          ],
          "internalType": "struct YooLoot.TokenData",
          "name": "",
          "type": "tuple"
        }
      ],
      "stateMutability": "view",
      "type": "function"
    },
    {
      "inputs": [
        {
          "internalType": "address",
          "name": "owner",
          "type": "address"
        },
        {
          "internalType": "uint256",
          "name": "start",
          "type": "uint256"
        },
        {
          "internalType": "uint256",
          "name": "num",
          "type": "uint256"
        }
      ],
      "name": "getTokenDataOfOwner",
      "outputs": [
        {
          "components": [
            {
              "internalType": "uint256",
              "name": "id",
              "type": "uint256"
            },
            {
              "internalType": "string",
              "name": "tokenURI",
              "type": "string"
            },
            {
              "internalType": "uint8[8]",
              "name": "deckPower",
              "type": "uint8[8]"
            }
          ],
          "internalType": "struct YooLoot.TokenData[]",
          "name": "tokens",
          "type": "tuple[]"
        }
      ],
      "stateMutability": "view",
      "type": "function"
    },
    {
      "inputs": [
        {
          "internalType": "uint256",
          "name": "lootId",
          "type": "uint256"
        }
      ],
      "name": "individualScore",
      "outputs": [
        {
          "internalType": "uint256",
          "name": "score",
          "type": "uint256"
        }
      ],
      "stateMutability": "view",
      "type": "function"
    },
    {
      "inputs": [
        {
          "internalType": "contract ILoot",
          "name": "loot",
          "type": "address"
        },
        {
          "internalType": "bool",
          "name": "winnerGetLoot",
          "type": "bool"
        },
        {
          "internalType": "uint8",
          "name": "commit3HPeriod",
          "type": "uint8"
        },
        {
          "internalType": "uint8",
          "name": "reveal3HPeriod",
          "type": "uint8"
        },
        {
          "internalType": "uint8",
          "name": "winner3HPeriod",
          "type": "uint8"
        }
      ],
      "name": "init",
      "outputs": [],
      "stateMutability": "nonpayable",
      "type": "function"
    },
    {
      "inputs": [],
      "name": "parameters",
      "outputs": [
        {
          "internalType": "contract ILoot",
          "name": "loot",
          "type": "address"
        },
        {
          "internalType": "uint40",
          "name": "startTime",
          "type": "uint40"
        },
        {
          "internalType": "uint8",
          "name": "commit3HPeriod",
          "type": "uint8"
        },
        {
          "internalType": "uint8",
          "name": "reveal3HPeriod",
          "type": "uint8"
        },
        {
          "internalType": "uint8",
          "name": "winner3HPeriod",
          "type": "uint8"
        },
        {
          "internalType": "bool",
          "name": "winnerGetLoot",
          "type": "bool"
        }
      ],
      "stateMutability": "view",
      "type": "function"
    },
    {
      "inputs": [
        {
          "internalType": "uint256",
          "name": "lootId",
          "type": "uint256"
        },
        {
          "internalType": "uint8[8]",
          "name": "deckWithStartIndex1",
          "type": "uint8[8]"
        },
        {
          "internalType": "bytes32",
          "name": "secret",
          "type": "bytes32"
        }
      ],
      "name": "revealLootDeck",
      "outputs": [],
      "stateMutability": "nonpayable",
      "type": "function"
    },
    {
      "inputs": [
        {
          "internalType": "uint8",
          "name": "",
          "type": "uint8"
        },
        {
          "internalType": "uint8",
          "name": "",
          "type": "uint8"
        }
      ],
      "name": "rounds",
      "outputs": [
        {
          "internalType": "uint256",
          "name": "",
          "type": "uint256"
        }
      ],
      "stateMutability": "view",
      "type": "function"
    },
    {
      "inputs": [],
      "name": "winner",
      "outputs": [
        {
          "internalType": "address",
          "name": "winnerAddress",
          "type": "address"
        },
        {
          "internalType": "uint256",
          "name": "winnerLootId",
          "type": "uint256"
        },
        {
          "internalType": "uint256",
          "name": "winnerScore",
          "type": "uint256"
        }
      ],
      "stateMutability": "view",
      "type": "function"
    },
    {
      "inputs": [
        {
          "internalType": "uint256",
          "name": "lootId",
          "type": "uint256"
        }
      ],
      "name": "withdrawAndGetXP",
      "outputs": [],
      "stateMutability": "nonpayable",
      "type": "function"
    }
  ],
  "transactionHash": "0x97008edb2c6ccf906b7db59375ca43991b89ff766f648979a129bb7b08313047",
  "args": [
    "0x342be942bf23108B70c6565ed51CfFa21D8954A1",
    [
      "0xA88001Dc4144af60B24e97A73bb7A8cfE908E59c",
      "0x0fa806c8d24582BE5CE60E016C00A43a0f28A2eA",
      "0x1fcb2c56658eb8Fd857Ea1Ce9CF659C4dA5E4640"
    ],
    "0xA88001Dc4144af60B24e97A73bb7A8cfE908E59c",
    true,
    56,
    24,
    8
  ],
  "solcInputHash": "af7b78e0a0143b17c3da865c493ca7ae",
  "bytecode": "0x6101006040523480156200001257600080fd5b5060405162004273380380620042738339810160408190526200003591620001ae565b6001600160601b0319606088811b821660e0528751811b82166080526020880151811b821660a0526040880151901b1660c05262000077858585858562000084565b50505050505050620002e7565b600154600160a01b900464ffffffffff1615620000e75760405162461bcd60e51b815260206004820152601360248201527f414c52454144595f494e495449414c4953454400000000000000000000000000604482015260640160405180910390fd5b600180546001600160a01b03969096166001600160a01b0360ff60e01b011990961695909517600160e01b941515949094029390931765ffffffffffff60a01b1916600160a01b4264ffffffffff160260ff60c81b191617600160c81b60ff938416021761ffff60d01b1916600160d01b9183169190910260ff60d81b191617600160d81b9290911691909102179055565b80516200018681620002ce565b919050565b805180151581146200018657600080fd5b805160ff811681146200018657600080fd5b6000806000806000806000610120888a031215620001cb57600080fd5b8751620001d881620002ce565b96506020603f89018a13620001ec57600080fd5b604051606081016001600160401b0381118282101715620002115762000211620002b8565b604052808a830160808c018d8111156200022a57600080fd5b60005b60038110156200025557620002428362000179565b845292850192918501916001016200022d565b50839a50620002648162000179565b995050505050506200027960a089016200018b565b93506200028960c089016200019c565b92506200029960e089016200019c565b9150620002aa61010089016200019c565b905092959891949750929550565b634e487b7160e01b600052604160045260246000fd5b6001600160a01b0381168114620002e457600080fd5b50565b60805160601c60a05160601c60c05160601c60e05160601c613f2a6200034960003960008181610e8f0152612f930152600081816112df0152818161148601528181611b77015261236101526000611430015260006113db0152613f2a6000f3fe608060405234801561001057600080fd5b506004361061016c5760003560e01c80639b17ac66116100cd578063bbe0e56e11610081578063d378d09611610066578063d378d09614610451578063dfbf53ae14610471578063e1b28a58146104ab57600080fd5b8063bbe0e56e1461042b578063d06a72441461043e57600080fd5b8063b02c43d0116100b2578063b02c43d0146103aa578063b09afec1146103e0578063ba1533b21461040057600080fd5b80639b17ac661461035f5780639b4557e81461037257600080fd5b80636c37648a116101245780637eee28df116101095780637eee28df1461021c578063890357301461022f5780638e76c6921461034c57600080fd5b80636c37648a146101e8578063745fb2d61461020957600080fd5b80631f89d097116101555780631f89d097146101995780633a5110db146101ac578063506c0e86146101d557600080fd5b80631b16b4d3146101715780631c0dcf8714610186575b600080fd5b61018461017f3660046139d0565b6104cb565b005b610184610194366004613894565b6108e6565b6101846101a7366004613894565b610b36565b6101bf6101ba3660046136f1565b610f66565b6040516101cc9190613b84565b60405180910390f35b6101846101e3366004613760565b61135c565b6101fb6101f6366004613894565b61154e565b6040519081526020016101cc565b6101846102173660046138c6565b6117f1565b61018461022a366004613743565b611d6f565b6001546102f79073ffffffffffffffffffffffffffffffffffffffff81169064ffffffffff740100000000000000000000000000000000000000008204169060ff79010000000000000000000000000000000000000000000000000082048116917a01000000000000000000000000000000000000000000000000000081048216917b0100000000000000000000000000000000000000000000000000000082048116917c010000000000000000000000000000000000000000000000000000000090041686565b6040805173ffffffffffffffffffffffffffffffffffffffff909716875264ffffffffff909516602087015260ff938416948601949094529082166060850152166080830152151560a082015260c0016101cc565b61018461035a366004613760565b61153a565b61018461036d3660046139ae565b611fd1565b610385610380366004613760565b612211565b60405173ffffffffffffffffffffffffffffffffffffffff90911681526020016101cc565b6103856103b8366004613894565b60006020819052908152604090205473ffffffffffffffffffffffffffffffffffffffff1681565b6103f36103ee366004613894565b61222c565b6040516101cc9190613c56565b6101fb61040e366004613a17565b600360209081526000928352604080842090915290825290205481565b610184610439366004613894565b6123a9565b61038561044c366004613760565b612783565b61046461045f366004613904565b612794565b6040516101cc9190613c41565b61047961281a565b6040805173ffffffffffffffffffffffffffffffffffffffff90941684526020840192909252908201526060016101cc565b6101fb6104b9366004613894565b60026020526000908152604090205481565b6001546104fa90790100000000000000000000000000000000000000000000000000900460ff16612a30613cba565b6001546105269074010000000000000000000000000000000000000000900464ffffffffff1642613cf7565b10610592576040517f08c379a000000000000000000000000000000000000000000000000000000000815260206004820152601260248201527f434f4d4d49545f504552494f445f4f564552000000000000000000000000000060448201526064015b60405180910390fd5b60018114156105fd576040517f08c379a000000000000000000000000000000000000000000000000000000000815260206004820152600c60248201527f494e56414c4944204841534800000000000000000000000000000000000000006044820152606401610589565b80610664576040517f08c379a000000000000000000000000000000000000000000000000000000000815260206004820152600f60248201527f4e455645525f5355424d495454454400000000000000000000000000000000006044820152606401610589565b60008381526020819052604090205473ffffffffffffffffffffffffffffffffffffffff1633146106f1576040517f08c379a000000000000000000000000000000000000000000000000000000000815260206004820152600d60248201527f4e4f545f594f55525f4c4f4f54000000000000000000000000000000000000006044820152606401610589565b600082815260026020526040902081905582821461087d5760008381526002602090815260408083208390559082905280822080547fffffffffffffffffffffffff00000000000000000000000000000000000000009081169091558483529181902080543393168317905560015490517f42842e0e00000000000000000000000000000000000000000000000000000000815230600482015260248101929092526044820185905273ffffffffffffffffffffffffffffffffffffffff16906342842e0e90606401600060405180830381600087803b1580156107d457600080fd5b505af11580156107e8573d6000803e3d6000fd5b50506001546040517f23b872dd0000000000000000000000000000000000000000000000000000000081523360048201523060248201526044810186905273ffffffffffffffffffffffffffffffffffffffff90911692506323b872dd9150606401600060405180830381600087803b15801561086457600080fd5b505af1158015610878573d6000803e3d6000fd5b505050505b604051839033907ff1c7f9718b5514ae194b133997551a0ae0cd216fecedde802c4530bd52d3a59290600090a3604051818152829033907f192b0f1468348c5b80c08a20c51326bcee8ea98f2ed5e7b813b6b24e279255029060200160405180910390a3505050565b60015461091590790100000000000000000000000000000000000000000000000000900460ff16612a30613cba565b6001546109419074010000000000000000000000000000000000000000900464ffffffffff1642613cf7565b106109a8576040517f08c379a000000000000000000000000000000000000000000000000000000000815260206004820152601260248201527f434f4d4d49545f504552494f445f4f56455200000000000000000000000000006044820152606401610589565b60008181526020819052604090205473ffffffffffffffffffffffffffffffffffffffff163314610a35576040517f08c379a000000000000000000000000000000000000000000000000000000000815260206004820152600d60248201527f4e4f545f594f55525f4c4f4f54000000000000000000000000000000000000006044820152606401610589565b6000818152600260209081526040808320839055908290529081902080547fffffffffffffffffffffffff000000000000000000000000000000000000000016905560015490517f42842e0e0000000000000000000000000000000000000000000000000000000081523060048201523360248201526044810183905273ffffffffffffffffffffffffffffffffffffffff909116906342842e0e90606401600060405180830381600087803b158015610aee57600080fd5b505af1158015610b02573d6000803e3d6000fd5b50506040518392503391507ff1c7f9718b5514ae194b133997551a0ae0cd216fecedde802c4530bd52d3a59290600090a350565b6000806000610b4361281a565b600154929550909350915060ff7b010000000000000000000000000000000000000000000000000000008204811691610bba917a0100000000000000000000000000000000000000000000000000008204811691790100000000000000000000000000000000000000000000000000900416613c69565b610bc49190613c69565b610bd090612a30613cba565b600154610bfc9074010000000000000000000000000000000000000000900464ffffffffff1642613cf7565b11610c7f5773ffffffffffffffffffffffffffffffffffffffff831615610c7f576040517f08c379a000000000000000000000000000000000000000000000000000000000815260206004820152601760248201527f564943544f52595f504552494f445f4e4f545f4f5645520000000000000000006044820152606401610589565b60008481526020819052604090205473ffffffffffffffffffffffffffffffffffffffff163314610d0c576040517f08c379a000000000000000000000000000000000000000000000000000000000815260206004820152600960248201527f4e4f545f4f574e455200000000000000000000000000000000000000000000006044820152606401610589565b600084815260026020526040902054600114610d84576040517f08c379a000000000000000000000000000000000000000000000000000000000815260206004820152600e60248201527f4449445f4e4f545f52455645414c0000000000000000000000000000000000006044820152606401610589565b6001546040517f42842e0e0000000000000000000000000000000000000000000000000000000081523060048201523360248201526044810186905273ffffffffffffffffffffffffffffffffffffffff909116906342842e0e90606401600060405180830381600087803b158015610dfc57600080fd5b505af1158015610e10573d6000803e3d6000fd5b50505050600082851415610e3157610e2a82612710613cba565b9050610e59565b6000610e3c8661154e565b9050610e4a816103e8613cba565b610e55906064613c69565b9150505b6040517f5146ea0e00000000000000000000000000000000000000000000000000000000815260048101869052602481018290527f000000000000000000000000000000000000000000000000000000000000000073ffffffffffffffffffffffffffffffffffffffff1690635146ea0e90604401602060405180830381600087803b158015610ee857600080fd5b505af1158015610efc573d6000803e3d6000fd5b505050506040513d601f19601f82011682018060405250810190610f209190613726565b610f28575060005b604051818152859033907f5892c6cb1d782a4f640c83141dd6dd939c114e55b9f5b700b15affb6d1fc7b849060200160405180910390a35050505050565b6001546040517f70a0823100000000000000000000000000000000000000000000000000000000815273ffffffffffffffffffffffffffffffffffffffff85811660048301526060926000929116906370a082319060240160206040518083038186803b158015610fd657600080fd5b505afa158015610fea573d6000803e3d6000fd5b505050506040513d601f19601f8201168201806040525081019061100e91906138ad565b905061101a8385613c69565b811015611083576040517f08c379a000000000000000000000000000000000000000000000000000000000815260206004820152601860248201527f544f4f5f4d414e595f544f4b454e5f52455155455354454400000000000000006044820152606401610589565b8267ffffffffffffffff81111561109c5761109c613e92565b6040519080825280602002602001820160405280156110d557816020015b6110c2613690565b8152602001906001900390816110ba5790505b50604080516101008101825260018152600260208201526003918101919091526004606082015260056080820152600660a0820152600760c0820152600860e082015290925060005b848110156113525760015460009073ffffffffffffffffffffffffffffffffffffffff16632f745c5989611152858b613c69565b6040517fffffffff0000000000000000000000000000000000000000000000000000000060e085901b16815273ffffffffffffffffffffffffffffffffffffffff9092166004830152602482015260440160206040518083038186803b1580156111bb57600080fd5b505afa1580156111cf573d6000803e3d6000fd5b505050506040513d601f19601f820116820180604052508101906111f391906138ad565b6040805160608101825282815260015491517fc87b56dd0000000000000000000000000000000000000000000000000000000081526004810184905292935091602083019173ffffffffffffffffffffffffffffffffffffffff169063c87b56dd9060240160006040518083038186803b15801561127057600080fd5b505afa158015611284573d6000803e3d6000fd5b505050506040513d6000823e601f3d9081017fffffffffffffffffffffffffffffffffffffffffffffffffffffffffffffffe01682016040526112ca91908101906137c9565b815260015460209091019061131e90849087907f000000000000000000000000000000000000000000000000000000000000000073ffffffffffffffffffffffffffffffffffffffff908116911614612794565b81525085838151811061133357611333613e63565b6020026020010181905250818061134990613d98565b9250505061111e565b5050509392505050565b73ffffffffffffffffffffffffffffffffffffffff85166113d9576040517f08c379a000000000000000000000000000000000000000000000000000000000815260206004820152601160248201527f494e56414c49445f5a45524f5f4c4f4f540000000000000000000000000000006044820152606401610589565b7f000000000000000000000000000000000000000000000000000000000000000073ffffffffffffffffffffffffffffffffffffffff168573ffffffffffffffffffffffffffffffffffffffff16148061147e57507f000000000000000000000000000000000000000000000000000000000000000073ffffffffffffffffffffffffffffffffffffffff168573ffffffffffffffffffffffffffffffffffffffff16145b806114d457507f000000000000000000000000000000000000000000000000000000000000000073ffffffffffffffffffffffffffffffffffffffff168573ffffffffffffffffffffffffffffffffffffffff16145b61153a576040517f08c379a000000000000000000000000000000000000000000000000000000000815260206004820152600c60248201527f494e56414c4944204c4f4f5400000000000000000000000000000000000000006044820152606401610589565b6115478585858585612b61565b5050505050565b6000808211801561157f5750817fffffffffffffffffffffffffffffffffffffffffffffffffffffffffffffffff14155b6115e5576040517f08c379a000000000000000000000000000000000000000000000000000000000815260206004820152600c60248201527f494e56414c49445f4c4f4f5400000000000000000000000000000000000000006044820152606401610589565b6001546116329060ff7a0100000000000000000000000000000000000000000000000000008204811691790100000000000000000000000000000000000000000000000000900416613c69565b61163e90612a30613cba565b60015461166a9074010000000000000000000000000000000000000000900464ffffffffff1642613cf7565b116116d1576040517f08c379a000000000000000000000000000000000000000000000000000000000815260206004820152601660248201527f52455645414c5f504552494f445f4e4f545f4f564552000000000000000000006044820152606401610589565b6000805b60088160ff1610156117ea576000607e5b60ff8116156117ad5760ff831660009081526003602052604081208161170d600185613d0e565b60ff1660ff1681526020019081526020016000205490508681141561175b5784611738856001613c81565b60ff166117459190613c69565b61174f9087613c69565b955060019250506117ad565b60008111801561178b5750807fffffffffffffffffffffffffffffffffffffffffffffffffffffffffffffffff14155b1561179a5760019250506117ad565b50806117a581613d5d565b9150506116e6565b50806117d2576117be826001613c81565b6117cb9060ff1684613c69565b92506117d7565b600092505b50806117e281613dd1565b9150506116d5565b5050919050565b60015460009061182390790100000000000000000000000000000000000000000000000000900460ff16612a30613cba565b6001549091506000906118559074010000000000000000000000000000000000000000900464ffffffffff1642613cf7565b90508181116118c0576040517f08c379a000000000000000000000000000000000000000000000000000000000815260206004820152601960248201527f52455645414c5f504552494f445f4e4f545f53544152544544000000000000006044820152606401610589565b6001546118f0907a010000000000000000000000000000000000000000000000000000900460ff16612a30613cba565b6118fa9083613c69565b8110611962576040517f08c379a000000000000000000000000000000000000000000000000000000000815260206004820152601260248201527f52455645414c5f504552494f445f4f56455200000000000000000000000000006044820152606401610589565b60008581526002602052604090205460018114156119dc576040517f08c379a000000000000000000000000000000000000000000000000000000000815260206004820152601060248201527f414c52454144595f52455645414c4544000000000000000000000000000000006044820152606401610589565b80611a43576040517f08c379a000000000000000000000000000000000000000000000000000000000815260206004820152600f60248201527f4e455645525f5355424d495454454400000000000000000000000000000000006044820152606401610589565b80848787604051602001611a5993929190613aeb565b6040516020818303038152906040528051906020012014611ad6576040517f08c379a000000000000000000000000000000000000000000000000000000000815260206004820152600f60248201527f494e56414c49445f5345435245542700000000000000000000000000000000006044820152606401610589565b600086815260026020526040902060019055611af06136b6565b60005b60088160ff161015611c855760006001888360ff1660088110611b1857611b18613e63565b602002016020810190611b2b91906139fc565b611b359190613d0e565b9050828160ff1660088110611b4c57611b4c613e63565b60200201805190611b5c82613dd1565b60ff90811690915260015460009250611bb6918c91908516907f000000000000000000000000000000000000000000000000000000000000000073ffffffffffffffffffffffffffffffffffffffff908116911614612d70565b60ff80851660009081526003602090815260408083209385168352929052205490915080611c055760ff80851660009081526003602090815260408083209386168352929052208b9055611c6f565b807fffffffffffffffffffffffffffffffffffffffffffffffffffffffffffffffff14611c6f5760ff80851660009081526003602090815260408083209386168352929052207fffffffffffffffffffffffffffffffffffffffffffffffffffffffffffffffff90555b5050508080611c7d90613dd1565b915050611af3565b5060005b60088160ff161015611d2d57818160ff1660088110611caa57611caa613e63565b602002015160ff16600114611d1b576040517f08c379a000000000000000000000000000000000000000000000000000000000815260206004820152600c60248201527f494e56414c49445f4445434b00000000000000000000000000000000000000006044820152606401610589565b80611d2581613dd1565b915050611c89565b50867f623ee6c2bd9ad515164ba132cb8f630acf54c0fd1e1118074c75676d8b41bab787604051611d5e9190613c04565b60405180910390a250505050505050565b60015473ffffffffffffffffffffffffffffffffffffffff82811691161415611df4576040517f08c379a000000000000000000000000000000000000000000000000000000000815260206004820152600d60248201527f494e56414c49445f4552433230000000000000000000000000000000000000006044820152606401610589565b6000611dfe61281a565b509091505073ffffffffffffffffffffffffffffffffffffffff81163314611e82576040517f08c379a000000000000000000000000000000000000000000000000000000000815260206004820152600a60248201527f4e4f545f57494e4e4552000000000000000000000000000000000000000000006044820152606401610589565b6040517f70a0823100000000000000000000000000000000000000000000000000000000815230600482015273ffffffffffffffffffffffffffffffffffffffff83169063a9059cbb90339083906370a082319060240160206040518083038186803b158015611ef157600080fd5b505afa158015611f05573d6000803e3d6000fd5b505050506040513d601f19601f82011682018060405250810190611f2991906138ad565b6040517fffffffff0000000000000000000000000000000000000000000000000000000060e085901b16815273ffffffffffffffffffffffffffffffffffffffff90921660048301526024820152604401602060405180830381600087803b158015611f9457600080fd5b505af1158015611fa8573d6000803e3d6000fd5b505050506040513d601f19601f82011682018060405250810190611fcc9190613726565b505050565b60015461200090790100000000000000000000000000000000000000000000000000900460ff16612a30613cba565b60015461202c9074010000000000000000000000000000000000000000900464ffffffffff1642613cf7565b10612093576040517f08c379a000000000000000000000000000000000000000000000000000000000815260206004820152601260248201527f434f4d4d49545f504552494f445f4f56455200000000000000000000000000006044820152606401610589565b60018114156120fe576040517f08c379a000000000000000000000000000000000000000000000000000000000815260206004820152600c60248201527f494e56414c4944204841534800000000000000000000000000000000000000006044820152606401610589565b6000828152600260209081526040808320849055908290529081902080547fffffffffffffffffffffffff0000000000000000000000000000000000000000163390811790915560015491517f23b872dd00000000000000000000000000000000000000000000000000000000815260048101919091523060248201526044810184905273ffffffffffffffffffffffffffffffffffffffff909116906323b872dd90606401600060405180830381600087803b1580156121be57600080fd5b505af11580156121d2573d6000803e3d6000fd5b50506040518381528492503391507f192b0f1468348c5b80c08a20c51326bcee8ea98f2ed5e7b813b6b24e279255029060200160405180910390a35050565b600061222286868686866001612e51565b9695505050505050565b612234613690565b6040805161010081018252600180825260026020808401919091526003838501526004606080850182905260056080860152600660a0860152600760c0860152600860e086015285519081018652878152925494517fc87b56dd000000000000000000000000000000000000000000000000000000008152908101879052929391929083019173ffffffffffffffffffffffffffffffffffffffff169063c87b56dd9060240160006040518083038186803b1580156122f257600080fd5b505afa158015612306573d6000803e3d6000fd5b505050506040513d6000823e601f3d9081017fffffffffffffffffffffffffffffffffffffffffffffffffffffffffffffffe016820160405261234c91908101906137c9565b81526001546020909101906123a090869085907f000000000000000000000000000000000000000000000000000000000000000073ffffffffffffffffffffffffffffffffffffffff908116911614612794565b90529392505050565b6001547c0100000000000000000000000000000000000000000000000000000000900460ff16612435576040517f08c379a000000000000000000000000000000000000000000000000000000000815260206004820152600e60248201527f4e4f5f4c4f4f545f544f5f57494e0000000000000000000000000000000000006044820152606401610589565b60015460ff7b0100000000000000000000000000000000000000000000000000000082048116916124a4917a0100000000000000000000000000000000000000000000000000008204811691790100000000000000000000000000000000000000000000000000900416613c69565b6124ae9190613c69565b6124ba90612a30613cba565b6001546124e69074010000000000000000000000000000000000000000900464ffffffffff1642613cf7565b1061254d576040517f08c379a000000000000000000000000000000000000000000000000000000000815260206004820152601360248201527f564943544f52595f504552494f445f4f564552000000000000000000000000006044820152606401610589565b600061255761281a565b509091505073ffffffffffffffffffffffffffffffffffffffff811633146125db576040517f08c379a000000000000000000000000000000000000000000000000000000000815260206004820152600a60248201527f4e4f545f57494e4e4552000000000000000000000000000000000000000000006044820152606401610589565b60008281526020819052604090205473ffffffffffffffffffffffffffffffffffffffff163381141561266a576040517f08c379a000000000000000000000000000000000000000000000000000000000815260206004820152600d60248201527f414c52454144595f4f574e4552000000000000000000000000000000000000006044820152606401610589565b6001546040517f42842e0e0000000000000000000000000000000000000000000000000000000081523060048201523360248201526044810185905273ffffffffffffffffffffffffffffffffffffffff909116906342842e0e90606401600060405180830381600087803b1580156126e257600080fd5b505af11580156126f6573d6000803e3d6000fd5b5050600180547fffffffffffffff0000000000ffffffffffffffffffffffffffffffffffffffff16740100000000000000000000000000000000000000001790555050604051839073ffffffffffffffffffffffffffffffffffffffff83169033907f0e8ee02dcd808c59c531ff08aaa928ebb99be178ce4babf9a2c12820d6acde3e90600090a4505050565b600061222286868686866000612e51565b61279c6136b6565b60005b60088160ff161015612812576127de856001868460ff16600881106127c6576127c6613e63565b60200201516127d59190613d0e565b60ff1685612d70565b828260ff16600881106127f3576127f3613e63565b60ff90921660209290920201528061280a81613dd1565b91505061279f565b509392505050565b6001546000908190819061286e9060ff7a0100000000000000000000000000000000000000000000000000008204811691790100000000000000000000000000000000000000000000000000900416613c69565b61287a90612a30613cba565b6001546128a69074010000000000000000000000000000000000000000900464ffffffffff1642613cf7565b1161290d576040517f08c379a000000000000000000000000000000000000000000000000000000000815260206004820152601660248201527f52455645414c5f504552494f445f4e4f545f4f564552000000000000000000006044820152606401610589565b6129156136b6565b60005b60088160ff1610156129f857607e5b60ff8116156129e55760ff821660009081526003602052604081208161294e600185613d0e565b60ff1660ff1681526020019081526020016000205490506000811180156129955750807fffffffffffffffffffffffffffffffffffffffffffffffffffffffffffffffff14155b156129d25780848460ff16600881106129b0576129b0613e63565b60200201525073ffffffffffffffffffffffffffffffffffffffff95506129e5565b50806129dd81613d5d565b915050612927565b50806129f081613dd1565b915050612918565b5073ffffffffffffffffffffffffffffffffffffffff80851614612a2457506000938493508392509050565b60005b60088160ff161015612b3357600080805b60088160ff161015612af057848160ff1660088110612a5957612a59613e63565b6020020151612a7e57612a6d816001613c81565b612a779084613c81565b9250612ade565b848460ff1660088110612a9357612a93613e63565b6020020151858260ff1660088110612aad57612aad613e63565b60200201511415612ade57612ac3816001613c81565b612acd9084613c81565b612ad79083613c81565b9150600092505b80612ae881613dd1565b915050612a38565b50848160ff1610612b1e57838360ff1660088110612b1057612b10613e63565b602002015195508060ff1694505b50508080612b2b90613dd1565b915050612a27565b505060008281526020819052604090205473ffffffffffffffffffffffffffffffffffffffff169391925090565b60015474010000000000000000000000000000000000000000900464ffffffffff1615612bea576040517f08c379a000000000000000000000000000000000000000000000000000000000815260206004820152601360248201527f414c52454144595f494e495449414c49534544000000000000000000000000006044820152606401610589565b6001805473ffffffffffffffffffffffffffffffffffffffff969096167fffffff00ffffffffffffffff0000000000000000000000000000000000000000909616959095177c010000000000000000000000000000000000000000000000000000000094151594909402939093177fffffffffffff000000000000ffffffffffffffffffffffffffffffffffffffff16740100000000000000000000000000000000000000004264ffffffffff16027fffffffffffff00ffffffffffffffffffffffffffffffffffffffffffffffffff161779010000000000000000000000000000000000000000000000000060ff93841602177fffffffff0000ffffffffffffffffffffffffffffffffffffffffffffffffffff167a010000000000000000000000000000000000000000000000000000918316919091027fffffffff00ffffffffffffffffffffffffffffffffffffffffffffffffffffff16177b010000000000000000000000000000000000000000000000000000009290911691909102179055565b6000806000612d8086868661311b565b91509150600e8111612d9457506003612dba565b8060131415612da557506001612dba565b8060141415612db657506000612dba565b5060025b84612dd357612dca82607d613cf7565b92505050612e4a565b6006851015612e135781612de8600187613cf7565b612df390600f613cba565b612dfe906012613c69565b612e089190613c69565b612dca90607d613cf7565b8460061415612e335780612e28836004613cba565b612dfe90605d613c69565b80612e3f836004613cba565b612dfe906069613c69565b9392505050565b7f360894a13ba1a3210667c828492db98dca3e2076cc3735a920a3ca505d382bbc5460009073ffffffffffffffffffffffffffffffffffffffff8116612e945750305b6000612e9f82613425565b90508315612ff6576040517f506c0e8600000000000000000000000000000000000000000000000000000000815273ffffffffffffffffffffffffffffffffffffffff8a81166004830152891515602483015260ff808a16604484015280891660648401528716608483015282169063506c0e869060a401600060405180830381600087803b158015612f3157600080fd5b505af1158015612f45573d6000803e3d6000fd5b50506040517f40b197f300000000000000000000000000000000000000000000000000000000815273ffffffffffffffffffffffffffffffffffffffff8481166004830152600160248301527f00000000000000000000000000000000000000000000000000000000000000001692506340b197f39150604401600060405180830381600087803b158015612fd957600080fd5b505af1158015612fed573d6000803e3d6000fd5b50505050613099565b6040517f8e76c69200000000000000000000000000000000000000000000000000000000815273ffffffffffffffffffffffffffffffffffffffff8a81166004830152891515602483015260ff808a166044840152808916606484015287166084830152821690638e76c6929060a401600060405180830381600087803b15801561308057600080fd5b505af1158015613094573d6000803e3d6000fd5b505050505b60408051891515815260ff8981166020830152888116828401528716606082015273ffffffffffffffffffffffffffffffffffffffff838116608083015286151560a08301529151918b16917f3c435f0f4c8d3281c30467f5800662ad76dda5306fceb1c95958c661e961da849181900360c00190a298975050505050505050565b60408051808201909152600681527f574541504f4e0000000000000000000000000000000000000000000000000000602082015260009081906012600186141561319c57505060408051808201909152600581527f43484553540000000000000000000000000000000000000000000000000000006020820152600f61333c565b85600214156131e257505060408051808201909152600481527f48454144000000000000000000000000000000000000000000000000000000006020820152600f61333c565b856003141561322857505060408051808201909152600581527f57414953540000000000000000000000000000000000000000000000000000006020820152600f61333c565b856004141561326e57505060408051808201909152600481527f464f4f54000000000000000000000000000000000000000000000000000000006020820152600f61333c565b85600514156132b457505060408051808201909152600481527f48414e44000000000000000000000000000000000000000000000000000000006020820152600f61333c565b85600614156132fa57505060408051808201909152600481527f4e45434b000000000000000000000000000000000000000000000000000000006020820152600361333c565b856007141561333c57505060408051808201909152600481527f52494e4700000000000000000000000000000000000000000000000000000000602082015260055b600085158061334c5750611f4188105b1561338a576133838361335e8a613507565b60405160200161336f929190613b55565b604051602081830303815290604052613641565b9050613401565b6040517fffffffffffffffffffffffffffffffffffffffff00000000000000000000000060608a901b1660208201526133fe908490603401604080517fffffffffffffffffffffffffffffffffffffffffffffffffffffffffffffffe08184030181529082905261336f9291602001613b55565b90505b61340b8282613df1565b9450613418601582613df1565b9350505050935093915050565b60006040517f3d602d80600a3d3981f3363d3d373d3d3d363d7300000000000000000000000081528260601b60148201527f5af43d82803e903d91602b57fd5bf3000000000000000000000000000000000060288201526037816000f091505073ffffffffffffffffffffffffffffffffffffffff8116613502576040517f08c379a000000000000000000000000000000000000000000000000000000000815260206004820152601660248201527f455243313136373a20637265617465206661696c6564000000000000000000006044820152606401610589565b919050565b60608161354757505060408051808201909152600181527f3000000000000000000000000000000000000000000000000000000000000000602082015290565b8160005b8115613571578061355b81613d98565b915061356a9050600a83613ca6565b915061354b565b60008167ffffffffffffffff81111561358c5761358c613e92565b6040519080825280601f01601f1916602001820160405280156135b6576020820181803683370190505b5090505b8415613639576135cb600183613cf7565b91506135d8600a86613df1565b6135e3906030613c69565b60f81b8183815181106135f8576135f8613e63565b60200101907effffffffffffffffffffffffffffffffffffffffffffffffffffffffffffff1916908160001a905350613632600a86613ca6565b94506135ba565b949350505050565b6000816040516020016136549190613b39565b604080517fffffffffffffffffffffffffffffffffffffffffffffffffffffffffffffffe0818403018152919052805160209091012092915050565b604051806060016040528060008152602001606081526020016136b16136b6565b905290565b6040518061010001604052806008906020820280368337509192915050565b803561350281613ee6565b803560ff8116811461350257600080fd5b60008060006060848603121561370657600080fd5b833561371181613ec1565b95602085013595506040909401359392505050565b60006020828403121561373857600080fd5b8151612e4a81613ee6565b60006020828403121561375557600080fd5b8135612e4a81613ec1565b600080600080600060a0868803121561377857600080fd5b853561378381613ec1565b9450602086013561379381613ee6565b93506137a1604087016136e0565b92506137af606087016136e0565b91506137bd608087016136e0565b90509295509295909350565b6000602082840312156137db57600080fd5b815167ffffffffffffffff808211156137f357600080fd5b818401915084601f83011261380757600080fd5b81518181111561381957613819613e92565b604051601f82017fffffffffffffffffffffffffffffffffffffffffffffffffffffffffffffffe0908116603f0116810190838211818310171561385f5761385f613e92565b8160405282815287602084870101111561387857600080fd5b613889836020830160208801613d31565b979650505050505050565b6000602082840312156138a657600080fd5b5035919050565b6000602082840312156138bf57600080fd5b5051919050565b600080600061014084860312156138dc57600080fd5b833592506101208401858111156138f257600080fd5b60208501925080359150509250925092565b6000806000610140848603121561391a57600080fd5b83359250602085603f86011261392f57600080fd5b604051610100810181811067ffffffffffffffff8211171561395357613953613e92565b6040528086830161012088018981111561396c57600080fd5b60005b600881101561399357613981836136e0565b8452928501929185019160010161396f565b508396506139a0816136d5565b955050505050509250925092565b600080604083850312156139c157600080fd5b50508035926020909101359150565b6000806000606084860312156139e557600080fd5b505081359360208301359350604090920135919050565b600060208284031215613a0e57600080fd5b612e4a826136e0565b60008060408385031215613a2a57600080fd5b613a33836136e0565b9150613a41602084016136e0565b90509250929050565b8060005b6008811015613a7057815160ff16845260209384019390910190600101613a4e565b50505050565b6000610140825184526020830151816020860152805180838701526101609250613aa68184880160208501613d31565b60408501519150613aba6040870183613a4a565b601f017fffffffffffffffffffffffffffffffffffffffffffffffffffffffffffffffe01694909401019392505050565b838152600060208481840152604083018460005b6008811015613b265760ff613b13836136e0565b1683529183019190830190600101613aff565b5050505061014082019050949350505050565b60008251613b4b818460208701613d31565b9190910192915050565b60008351613b67818460208801613d31565b835190830190613b7b818360208801613d31565b01949350505050565b6000602080830181845280855180835260408601915060408160051b870101925083870160005b82811015613bf7577fffffffffffffffffffffffffffffffffffffffffffffffffffffffffffffffc0888603018452613be5858351613a76565b94509285019290850190600101613bab565b5092979650505050505050565b6101008101818360005b6008811015613c385760ff613c22836136e0565b1683526020928301929190910190600101613c0e565b50505092915050565b6101008101613c508284613a4a565b92915050565b602081526000612e4a6020830184613a76565b60008219821115613c7c57613c7c613e05565b500190565b600060ff821660ff84168060ff03821115613c9e57613c9e613e05565b019392505050565b600082613cb557613cb5613e34565b500490565b6000817fffffffffffffffffffffffffffffffffffffffffffffffffffffffffffffffff0483118215151615613cf257613cf2613e05565b500290565b600082821015613d0957613d09613e05565b500390565b600060ff821660ff841680821015613d2857613d28613e05565b90039392505050565b60005b83811015613d4c578181015183820152602001613d34565b83811115613a705750506000910152565b600060ff821680613d7057613d70613e05565b7fffffffffffffffffffffffffffffffffffffffffffffffffffffffffffffffff0192915050565b60007fffffffffffffffffffffffffffffffffffffffffffffffffffffffffffffffff821415613dca57613dca613e05565b5060010190565b600060ff821660ff811415613de857613de8613e05565b60010192915050565b600082613e0057613e00613e34565b500690565b7f4e487b7100000000000000000000000000000000000000000000000000000000600052601160045260246000fd5b7f4e487b7100000000000000000000000000000000000000000000000000000000600052601260045260246000fd5b7f4e487b7100000000000000000000000000000000000000000000000000000000600052603260045260246000fd5b7f4e487b7100000000000000000000000000000000000000000000000000000000600052604160045260246000fd5b73ffffffffffffffffffffffffffffffffffffffff81168114613ee357600080fd5b50565b8015158114613ee357600080fdfea26469706673582212202e1512419024e1424a8d28f1e3615fbf5239714ec2a97ad87984f9270b1332e164736f6c63430008070033",
  "devdoc": {
    "kind": "dev",
    "methods": {},
    "version": 1
  },
  "userdoc": {
    "kind": "user",
    "methods": {
      "getTokenDataOfOwner(address,uint256,uint256)": {
        "notice": "get all info in the minimum calls"
      }
    },
    "version": 1
  },
  "storageLayout": {
    "storage": [
      {
        "astId": 430,
        "contract": "src/YooLoot.sol:YooLoot",
        "label": "deposits",
        "offset": 0,
        "slot": "0",
        "type": "t_mapping(t_uint256,t_address)"
      },
      {
        "astId": 433,
        "contract": "src/YooLoot.sol:YooLoot",
        "label": "parameters",
        "offset": 0,
        "slot": "1",
        "type": "t_struct(Parameters)417_storage"
      },
      {
        "astId": 437,
        "contract": "src/YooLoot.sol:YooLoot",
        "label": "deckHashes",
        "offset": 0,
        "slot": "2",
        "type": "t_mapping(t_uint256,t_bytes32)"
      },
      {
        "astId": 443,
        "contract": "src/YooLoot.sol:YooLoot",
        "label": "rounds",
        "offset": 0,
        "slot": "3",
        "type": "t_mapping(t_uint8,t_mapping(t_uint8,t_uint256))"
      }
    ],
    "types": {
      "t_address": {
        "encoding": "inplace",
        "label": "address",
        "numberOfBytes": "20"
      },
      "t_bool": {
        "encoding": "inplace",
        "label": "bool",
        "numberOfBytes": "1"
      },
      "t_bytes32": {
        "encoding": "inplace",
        "label": "bytes32",
        "numberOfBytes": "32"
      },
      "t_contract(ILoot)2616": {
        "encoding": "inplace",
        "label": "contract ILoot",
        "numberOfBytes": "20"
      },
      "t_mapping(t_uint256,t_address)": {
        "encoding": "mapping",
        "key": "t_uint256",
        "label": "mapping(uint256 => address)",
        "numberOfBytes": "32",
        "value": "t_address"
      },
      "t_mapping(t_uint256,t_bytes32)": {
        "encoding": "mapping",
        "key": "t_uint256",
        "label": "mapping(uint256 => bytes32)",
        "numberOfBytes": "32",
        "value": "t_bytes32"
      },
      "t_mapping(t_uint8,t_mapping(t_uint8,t_uint256))": {
        "encoding": "mapping",
        "key": "t_uint8",
        "label": "mapping(uint8 => mapping(uint8 => uint256))",
        "numberOfBytes": "32",
        "value": "t_mapping(t_uint8,t_uint256)"
      },
      "t_mapping(t_uint8,t_uint256)": {
        "encoding": "mapping",
        "key": "t_uint8",
        "label": "mapping(uint8 => uint256)",
        "numberOfBytes": "32",
        "value": "t_uint256"
      },
      "t_struct(Parameters)417_storage": {
        "encoding": "inplace",
        "label": "struct YooLoot.Parameters",
        "members": [
          {
            "astId": 406,
            "contract": "src/YooLoot.sol:YooLoot",
            "label": "loot",
            "offset": 0,
            "slot": "0",
            "type": "t_contract(ILoot)2616"
          },
          {
            "astId": 408,
            "contract": "src/YooLoot.sol:YooLoot",
            "label": "startTime",
            "offset": 20,
            "slot": "0",
            "type": "t_uint40"
          },
          {
            "astId": 410,
            "contract": "src/YooLoot.sol:YooLoot",
            "label": "commit3HPeriod",
            "offset": 25,
            "slot": "0",
            "type": "t_uint8"
          },
          {
            "astId": 412,
            "contract": "src/YooLoot.sol:YooLoot",
            "label": "reveal3HPeriod",
            "offset": 26,
            "slot": "0",
            "type": "t_uint8"
          },
          {
            "astId": 414,
            "contract": "src/YooLoot.sol:YooLoot",
            "label": "winner3HPeriod",
            "offset": 27,
            "slot": "0",
            "type": "t_uint8"
          },
          {
            "astId": 416,
            "contract": "src/YooLoot.sol:YooLoot",
            "label": "winnerGetLoot",
            "offset": 28,
            "slot": "0",
            "type": "t_bool"
          }
        ],
        "numberOfBytes": "32"
      },
      "t_uint256": {
        "encoding": "inplace",
        "label": "uint256",
        "numberOfBytes": "32"
      },
      "t_uint40": {
        "encoding": "inplace",
        "label": "uint40",
        "numberOfBytes": "5"
      },
      "t_uint8": {
        "encoding": "inplace",
        "label": "uint8",
        "numberOfBytes": "1"
      }
    }
  }
}