{
  "address": "0x03CefAA92264Ab4F154e84543B1A03678f4f44d6",
  "abi": [
    {
      "inputs": [
        {
          "internalType": "contract ILootXP",
          "name": "lootXP",
          "type": "address"
        },
        {
          "internalType": "address[3]",
          "name": "authorizedLoots",
          "type": "address[3]"
        },
        {
          "internalType": "contract ILoot",
          "name": "loot",
          "type": "address"
        },
        {
          "internalType": "bool",
          "name": "winnerGetLoot",
          "type": "bool"
        },
        {
          "internalType": "uint8",
          "name": "commit3HPeriod",
          "type": "uint8"
        },
        {
          "internalType": "uint8",
          "name": "reveal3HPeriod",
          "type": "uint8"
        },
        {
          "internalType": "uint8",
          "name": "winner3HPeriod",
          "type": "uint8"
        }
      ],
      "stateMutability": "nonpayable",
      "type": "constructor"
    },
    {
      "anonymous": false,
      "inputs": [
        {
          "indexed": true,
          "internalType": "address",
          "name": "loot",
          "type": "address"
        },
        {
          "indexed": false,
          "internalType": "bool",
          "name": "winnerGetLoot",
          "type": "bool"
        },
        {
          "indexed": false,
          "internalType": "uint8",
          "name": "commit3HPeriod",
          "type": "uint8"
        },
        {
          "indexed": false,
          "internalType": "uint8",
          "name": "reveal3HPeriod",
          "type": "uint8"
        },
        {
          "indexed": false,
          "internalType": "uint8",
          "name": "winner3HPeriod",
          "type": "uint8"
        },
        {
          "indexed": false,
          "internalType": "address",
          "name": "newYooLoot",
          "type": "address"
        },
        {
          "indexed": false,
          "internalType": "bool",
          "name": "authorizedAsXPSource",
          "type": "bool"
        }
      ],
      "name": "Cloned",
      "type": "event"
    },
    {
      "anonymous": false,
      "inputs": [
        {
          "indexed": true,
          "internalType": "address",
          "name": "player",
          "type": "address"
        },
        {
          "indexed": true,
          "internalType": "uint256",
          "name": "lootId",
          "type": "uint256"
        }
      ],
      "name": "LootDeckCanceled",
      "type": "event"
    },
    {
      "anonymous": false,
      "inputs": [
        {
          "indexed": true,
          "internalType": "uint256",
          "name": "lootId",
          "type": "uint256"
        },
        {
          "indexed": false,
          "internalType": "uint8[8]",
          "name": "deck",
          "type": "uint8[8]"
        }
      ],
      "name": "LootDeckRevealed",
      "type": "event"
    },
    {
      "anonymous": false,
      "inputs": [
        {
          "indexed": true,
          "internalType": "address",
          "name": "player",
          "type": "address"
        },
        {
          "indexed": true,
          "internalType": "uint256",
          "name": "lootId",
          "type": "uint256"
        },
        {
          "indexed": false,
          "internalType": "bytes32",
          "name": "deckHash",
          "type": "bytes32"
        }
      ],
      "name": "LootDeckSubmitted",
      "type": "event"
    },
    {
      "anonymous": false,
      "inputs": [
        {
          "indexed": true,
          "internalType": "address",
          "name": "player",
          "type": "address"
        },
        {
          "indexed": true,
          "internalType": "uint256",
          "name": "lootId",
          "type": "uint256"
        },
        {
          "indexed": false,
          "internalType": "uint256",
          "name": "xpGaimed",
          "type": "uint256"
        }
      ],
      "name": "LootWithdrawn",
      "type": "event"
    },
    {
      "anonymous": false,
      "inputs": [
        {
          "indexed": true,
          "internalType": "address",
          "name": "winner",
          "type": "address"
        },
        {
          "indexed": true,
          "internalType": "address",
          "name": "playerPastOwner",
          "type": "address"
        },
        {
          "indexed": true,
          "internalType": "uint256",
          "name": "lootId",
          "type": "uint256"
        }
      ],
      "name": "WinnerWithdrawal",
      "type": "event"
    },
    {
      "inputs": [
        {
          "internalType": "uint256",
          "name": "oldLootId",
          "type": "uint256"
        }
      ],
      "name": "cancelDeck",
      "outputs": [],
      "stateMutability": "nonpayable",
      "type": "function"
    },
    {
      "inputs": [
        {
          "internalType": "uint256",
          "name": "oldLootId",
          "type": "uint256"
        },
        {
          "internalType": "uint256",
          "name": "lootId",
          "type": "uint256"
        },
        {
          "internalType": "bytes32",
          "name": "deckHash",
          "type": "bytes32"
        }
      ],
      "name": "changeDeck",
      "outputs": [],
      "stateMutability": "nonpayable",
      "type": "function"
    },
    {
      "inputs": [
        {
          "internalType": "contract IERC20",
          "name": "token",
          "type": "address"
        }
      ],
      "name": "claimVictoryERC20",
      "outputs": [],
      "stateMutability": "nonpayable",
      "type": "function"
    },
    {
      "inputs": [
        {
          "internalType": "uint256",
          "name": "lootToPick",
          "type": "uint256"
        }
      ],
      "name": "claimVictoryLoot",
      "outputs": [],
      "stateMutability": "nonpayable",
      "type": "function"
    },
    {
      "inputs": [
        {
          "internalType": "contract ILoot",
          "name": "loot",
          "type": "address"
        },
        {
          "internalType": "bool",
          "name": "winnerGetLoot",
          "type": "bool"
        },
        {
          "internalType": "uint8",
          "name": "commit3HPeriod",
          "type": "uint8"
        },
        {
          "internalType": "uint8",
          "name": "reveal3HPeriod",
          "type": "uint8"
        },
        {
          "internalType": "uint8",
          "name": "winner3HPeriod",
          "type": "uint8"
        }
      ],
      "name": "clone",
      "outputs": [
        {
          "internalType": "address",
          "name": "",
          "type": "address"
        }
      ],
      "stateMutability": "nonpayable",
      "type": "function"
    },
    {
      "inputs": [
        {
          "internalType": "uint256",
          "name": "lootId",
          "type": "uint256"
        },
        {
          "internalType": "bytes32",
          "name": "deckHash",
          "type": "bytes32"
        }
      ],
      "name": "commitLootDeck",
      "outputs": [],
      "stateMutability": "nonpayable",
      "type": "function"
    },
    {
      "inputs": [
        {
          "internalType": "contract ILoot",
          "name": "loot",
          "type": "address"
        },
        {
          "internalType": "bool",
          "name": "winnerGetLoot",
          "type": "bool"
        },
        {
          "internalType": "uint8",
          "name": "commit3HPeriod",
          "type": "uint8"
        },
        {
          "internalType": "uint8",
          "name": "reveal3HPeriod",
          "type": "uint8"
        },
        {
          "internalType": "uint8",
          "name": "winner3HPeriod",
          "type": "uint8"
        }
      ],
      "name": "freeFormClone",
      "outputs": [
        {
          "internalType": "address",
          "name": "",
          "type": "address"
        }
      ],
      "stateMutability": "nonpayable",
      "type": "function"
    },
    {
      "inputs": [
        {
          "internalType": "contract ILoot",
          "name": "loot",
          "type": "address"
        },
        {
          "internalType": "bool",
          "name": "winnerGetLoot",
          "type": "bool"
        },
        {
          "internalType": "uint8",
          "name": "commit3HPeriod",
          "type": "uint8"
        },
        {
          "internalType": "uint8",
          "name": "reveal3HPeriod",
          "type": "uint8"
        },
        {
          "internalType": "uint8",
          "name": "winner3HPeriod",
          "type": "uint8"
        }
      ],
      "name": "freeFormInit",
      "outputs": [],
      "stateMutability": "nonpayable",
      "type": "function"
    },
    {
      "inputs": [
        {
          "internalType": "uint256",
          "name": "lootId",
          "type": "uint256"
        }
      ],
      "name": "getDeckHash",
      "outputs": [
        {
          "internalType": "bytes32",
          "name": "",
          "type": "bytes32"
        }
      ],
      "stateMutability": "view",
      "type": "function"
    },
    {
      "inputs": [
        {
          "internalType": "uint256",
          "name": "lootId",
          "type": "uint256"
        },
        {
          "internalType": "uint8[8]",
          "name": "deckWithStartIndex1",
          "type": "uint8[8]"
        },
        {
          "internalType": "bool",
          "name": "lootForEveryone",
          "type": "bool"
        }
      ],
      "name": "getDeckPower",
      "outputs": [
        {
          "internalType": "uint8[8]",
          "name": "deckPower",
          "type": "uint8[8]"
        }
      ],
      "stateMutability": "pure",
      "type": "function"
    },
    {
      "inputs": [],
      "name": "getParams",
      "outputs": [
        {
          "components": [
            {
              "internalType": "contract ILoot",
              "name": "loot",
              "type": "address"
            },
            {
              "internalType": "uint40",
              "name": "startTime",
              "type": "uint40"
            },
            {
              "internalType": "uint8",
              "name": "commit3HPeriod",
              "type": "uint8"
            },
            {
              "internalType": "uint8",
              "name": "reveal3HPeriod",
              "type": "uint8"
            },
            {
              "internalType": "uint8",
              "name": "winner3HPeriod",
              "type": "uint8"
            },
            {
              "internalType": "bool",
              "name": "winnerGetLoot",
              "type": "bool"
            }
          ],
          "internalType": "struct YooLoot.Parameters",
          "name": "",
          "type": "tuple"
        }
      ],
      "stateMutability": "view",
      "type": "function"
    },
    {
      "inputs": [
        {
          "internalType": "uint256",
          "name": "id",
          "type": "uint256"
        }
      ],
      "name": "getTokenData",
      "outputs": [
        {
          "components": [
            {
              "internalType": "uint256",
              "name": "id",
              "type": "uint256"
            },
            {
              "internalType": "string",
              "name": "tokenURI",
              "type": "string"
            },
            {
              "internalType": "uint8[8]",
              "name": "deckPower",
              "type": "uint8[8]"
            }
          ],
          "internalType": "struct YooLoot.TokenData",
          "name": "",
          "type": "tuple"
        }
      ],
      "stateMutability": "view",
      "type": "function"
    },
    {
      "inputs": [
        {
          "internalType": "address",
          "name": "owner",
          "type": "address"
        },
        {
          "internalType": "uint256",
          "name": "start",
          "type": "uint256"
        },
        {
          "internalType": "uint256",
          "name": "num",
          "type": "uint256"
        }
      ],
      "name": "getTokenDataOfOwner",
      "outputs": [
        {
          "components": [
            {
              "internalType": "uint256",
              "name": "id",
              "type": "uint256"
            },
            {
              "internalType": "string",
              "name": "tokenURI",
              "type": "string"
            },
            {
              "internalType": "uint8[8]",
              "name": "deckPower",
              "type": "uint8[8]"
            }
          ],
          "internalType": "struct YooLoot.TokenData[]",
          "name": "tokens",
          "type": "tuple[]"
        }
      ],
      "stateMutability": "view",
      "type": "function"
    },
    {
      "inputs": [
        {
          "internalType": "uint256",
          "name": "lootId",
          "type": "uint256"
        }
      ],
      "name": "individualScore",
      "outputs": [
        {
          "internalType": "uint256",
          "name": "score",
          "type": "uint256"
        }
      ],
      "stateMutability": "view",
      "type": "function"
    },
    {
      "inputs": [
        {
          "internalType": "contract ILoot",
          "name": "loot",
          "type": "address"
        },
        {
          "internalType": "bool",
          "name": "winnerGetLoot",
          "type": "bool"
        },
        {
          "internalType": "uint8",
          "name": "commit3HPeriod",
          "type": "uint8"
        },
        {
          "internalType": "uint8",
          "name": "reveal3HPeriod",
          "type": "uint8"
        },
        {
          "internalType": "uint8",
          "name": "winner3HPeriod",
          "type": "uint8"
        }
      ],
      "name": "init",
      "outputs": [],
      "stateMutability": "nonpayable",
      "type": "function"
    },
    {
      "inputs": [
        {
          "internalType": "uint256",
          "name": "lootId",
          "type": "uint256"
        },
        {
          "internalType": "uint8[8]",
          "name": "deckWithStartIndex1",
          "type": "uint8[8]"
        },
        {
          "internalType": "bytes32",
          "name": "secret",
          "type": "bytes32"
        }
      ],
      "name": "revealLootDeck",
      "outputs": [],
      "stateMutability": "nonpayable",
      "type": "function"
    },
    {
      "inputs": [],
      "name": "winner",
      "outputs": [
        {
          "internalType": "address",
          "name": "winnerAddress",
          "type": "address"
        },
        {
          "internalType": "uint256",
          "name": "winnerLootId",
          "type": "uint256"
        },
        {
          "internalType": "uint256",
          "name": "winnerScore",
          "type": "uint256"
        }
      ],
      "stateMutability": "view",
      "type": "function"
    },
    {
      "inputs": [
        {
          "internalType": "uint256",
          "name": "lootId",
          "type": "uint256"
        }
      ],
      "name": "withdrawAndGetXP",
      "outputs": [],
      "stateMutability": "nonpayable",
      "type": "function"
    }
  ],
  "transactionHash": "0xe8a90eb6cd4316b8fd79bf6cb08c461e39e1dfa907686d450e0894433f983962",
  "args": [
    "0x342be942bf23108B70c6565ed51CfFa21D8954A1",
    [
      "0xA88001Dc4144af60B24e97A73bb7A8cfE908E59c",
      "0x0fa806c8d24582BE5CE60E016C00A43a0f28A2eA",
      "0x1fcb2c56658eb8Fd857Ea1Ce9CF659C4dA5E4640"
    ],
    "0xA88001Dc4144af60B24e97A73bb7A8cfE908E59c",
    true,
    56,
    24,
    8
  ],
  "solcInputHash": "23d4795f437ab24aee489483adc15410",
  "bytecode": "0x6101006040523480156200001257600080fd5b506040516200413f3803806200413f8339810160408190526200003591620001ae565b6001600160601b0319606088811b821660e0528751811b82166080526020880151811b821660a0526040880151901b1660c05262000077858585858562000084565b50505050505050620002e7565b600054600160a01b900464ffffffffff1615620000e75760405162461bcd60e51b815260206004820152601360248201527f414c52454144595f494e495449414c4953454400000000000000000000000000604482015260640160405180910390fd5b600080546001600160a01b03969096166001600160a01b0360ff60e01b011990961695909517600160e01b941515949094029390931765ffffffffffff60a01b1916600160a01b4264ffffffffff160260ff60c81b191617600160c81b60ff938416021761ffff60d01b1916600160d01b9183169190910260ff60d81b191617600160d81b9290911691909102179055565b80516200018681620002ce565b919050565b805180151581146200018657600080fd5b805160ff811681146200018657600080fd5b6000806000806000806000610120888a031215620001cb57600080fd5b8751620001d881620002ce565b96506020603f89018a13620001ec57600080fd5b604051606081016001600160401b0381118282101715620002115762000211620002b8565b604052808a830160808c018d8111156200022a57600080fd5b60005b60038110156200025557620002428362000179565b845292850192918501916001016200022d565b50839a50620002648162000179565b995050505050506200027960a089016200018b565b93506200028960c089016200019c565b92506200029960e089016200019c565b9150620002aa61010089016200019c565b905092959891949750929550565b634e487b7160e01b600052604160045260246000fd5b6001600160a01b0381168114620002e457600080fd5b50565b60805160601c60a05160601c60c05160601c60e05160601c613df66200034960003960008181610e060152612e92015260008181611252015281816113f901528181611a800152612265015260006113a30152600061134e0152613df66000f3fe608060405234801561001057600080fd5b50600436106101365760003560e01c80638c5e14a4116100b2578063b09afec111610081578063d06a724411610066578063d06a72441461043e578063d378d09614610451578063dfbf53ae1461047157600080fd5b8063b09afec11461040b578063bbe0e56e1461042b57600080fd5b80638c5e14a41461038d5780638e76c692146103ad5780639b17ac66146103c05780639b4557e8146103d357600080fd5b8063506c0e86116101095780636c37648a116100ee5780636c37648a14610346578063745fb2d6146103675780637eee28df1461037a57600080fd5b8063506c0e861461019f5780635e615a6b146101b257600080fd5b80631b16b4d31461013b5780631c0dcf87146101505780631f89d097146101635780633a5110db14610176575b600080fd5b61014e6101493660046138cf565b6104ab565b005b61014e61015e366004613793565b61085e565b61014e610171366004613793565b610aad565b6101896101843660046135f0565b610edd565b6040516101969190613a50565b60405180910390f35b61014e6101ad36600461365f565b6112cf565b6102d26040805160c081018252600080825260208201819052918101829052606081018290526080810182905260a0810191909152506040805160c08101825260005473ffffffffffffffffffffffffffffffffffffffff8116825264ffffffffff74010000000000000000000000000000000000000000820416602083015260ff79010000000000000000000000000000000000000000000000000082048116938301939093527a0100000000000000000000000000000000000000000000000000008104831660608301527b010000000000000000000000000000000000000000000000000000008104831660808301527c01000000000000000000000000000000000000000000000000000000009004909116151560a082015290565b6040516101969190600060c08201905073ffffffffffffffffffffffffffffffffffffffff835116825264ffffffffff602084015116602083015260ff604084015116604083015260ff606084015116606083015260ff608084015116608083015260a0830151151560a083015292915050565b610359610354366004613793565b6114c1565b604051908152602001610196565b61014e6103753660046137c5565b611764565b61014e610388366004613642565b611c78565b61035961039b366004613793565b60009081526002602052604090205490565b61014e6103bb36600461365f565b6114ad565b61014e6103ce3660046138ad565b611eda565b6103e66103e136600461365f565b612117565b60405173ffffffffffffffffffffffffffffffffffffffff9091168152602001610196565b61041e610419366004613793565b612132565b6040516101969190613b22565b61014e610439366004613793565b6122ad565b6103e661044c36600461365f565b612684565b61046461045f366004613803565b612695565b6040516101969190613b0d565b61047961271b565b6040805173ffffffffffffffffffffffffffffffffffffffff9094168452602084019290925290820152606001610196565b6000546104da90790100000000000000000000000000000000000000000000000000900460ff16612a30613b86565b6000546105069074010000000000000000000000000000000000000000900464ffffffffff1642613bc3565b10610572576040517f08c379a000000000000000000000000000000000000000000000000000000000815260206004820152601260248201527f434f4d4d49545f504552494f445f4f564552000000000000000000000000000060448201526064015b60405180910390fd5b60018114156105dd576040517f08c379a000000000000000000000000000000000000000000000000000000000815260206004820152600c60248201527f494e56414c4944204841534800000000000000000000000000000000000000006044820152606401610569565b60008381526001602052604090205473ffffffffffffffffffffffffffffffffffffffff16331461066a576040517f08c379a000000000000000000000000000000000000000000000000000000000815260206004820152600d60248201527f4e4f545f594f55525f4c4f4f54000000000000000000000000000000000000006044820152606401610569565b60008281526002602052604090208190558282146107f5576000838152600260209081526040808320839055600190915280822080547fffffffffffffffffffffffff0000000000000000000000000000000000000000908116909155848352818320805433921682179055915490517f42842e0e00000000000000000000000000000000000000000000000000000000815230600482015260248101929092526044820185905273ffffffffffffffffffffffffffffffffffffffff16906342842e0e90606401600060405180830381600087803b15801561074c57600080fd5b505af1158015610760573d6000803e3d6000fd5b50506000546040517f23b872dd0000000000000000000000000000000000000000000000000000000081523360048201523060248201526044810186905273ffffffffffffffffffffffffffffffffffffffff90911692506323b872dd9150606401600060405180830381600087803b1580156107dc57600080fd5b505af11580156107f0573d6000803e3d6000fd5b505050505b604051839033907ff1c7f9718b5514ae194b133997551a0ae0cd216fecedde802c4530bd52d3a59290600090a3604051818152829033907f192b0f1468348c5b80c08a20c51326bcee8ea98f2ed5e7b813b6b24e279255029060200160405180910390a3505050565b60005461088d90790100000000000000000000000000000000000000000000000000900460ff16612a30613b86565b6000546108b99074010000000000000000000000000000000000000000900464ffffffffff1642613bc3565b10610920576040517f08c379a000000000000000000000000000000000000000000000000000000000815260206004820152601260248201527f434f4d4d49545f504552494f445f4f56455200000000000000000000000000006044820152606401610569565b60008181526001602052604090205473ffffffffffffffffffffffffffffffffffffffff1633146109ad576040517f08c379a000000000000000000000000000000000000000000000000000000000815260206004820152600d60248201527f4e4f545f594f55525f4c4f4f54000000000000000000000000000000000000006044820152606401610569565b6000818152600260209081526040808320839055600190915280822080547fffffffffffffffffffffffff0000000000000000000000000000000000000000169055905490517f42842e0e0000000000000000000000000000000000000000000000000000000081523060048201523360248201526044810183905273ffffffffffffffffffffffffffffffffffffffff909116906342842e0e90606401600060405180830381600087803b158015610a6557600080fd5b505af1158015610a79573d6000803e3d6000fd5b50506040518392503391507ff1c7f9718b5514ae194b133997551a0ae0cd216fecedde802c4530bd52d3a59290600090a350565b6000806000610aba61271b565b600054929550909350915060ff7b010000000000000000000000000000000000000000000000000000008204811691610b31917a0100000000000000000000000000000000000000000000000000008204811691790100000000000000000000000000000000000000000000000000900416613b35565b610b3b9190613b35565b610b4790612a30613b86565b600054610b739074010000000000000000000000000000000000000000900464ffffffffff1642613bc3565b11610bf65773ffffffffffffffffffffffffffffffffffffffff831615610bf6576040517f08c379a000000000000000000000000000000000000000000000000000000000815260206004820152601760248201527f564943544f52595f504552494f445f4e4f545f4f5645520000000000000000006044820152606401610569565b60008481526001602052604090205473ffffffffffffffffffffffffffffffffffffffff163314610c83576040517f08c379a000000000000000000000000000000000000000000000000000000000815260206004820152600960248201527f4e4f545f4f574e455200000000000000000000000000000000000000000000006044820152606401610569565b600084815260026020526040902054600114610cfb576040517f08c379a000000000000000000000000000000000000000000000000000000000815260206004820152600e60248201527f4449445f4e4f545f52455645414c0000000000000000000000000000000000006044820152606401610569565b6000546040517f42842e0e0000000000000000000000000000000000000000000000000000000081523060048201523360248201526044810186905273ffffffffffffffffffffffffffffffffffffffff909116906342842e0e90606401600060405180830381600087803b158015610d7357600080fd5b505af1158015610d87573d6000803e3d6000fd5b50505050600082851415610da857610da182612710613b86565b9050610dd0565b6000610db3866114c1565b9050610dc1816103e8613b86565b610dcc906064613b35565b9150505b6040517f5146ea0e00000000000000000000000000000000000000000000000000000000815260048101869052602481018290527f000000000000000000000000000000000000000000000000000000000000000073ffffffffffffffffffffffffffffffffffffffff1690635146ea0e90604401602060405180830381600087803b158015610e5f57600080fd5b505af1158015610e73573d6000803e3d6000fd5b505050506040513d601f19601f82011682018060405250810190610e979190613625565b610e9f575060005b604051818152859033907f5892c6cb1d782a4f640c83141dd6dd939c114e55b9f5b700b15affb6d1fc7b849060200160405180910390a35050505050565b600080546040517f70a0823100000000000000000000000000000000000000000000000000000000815273ffffffffffffffffffffffffffffffffffffffff86811660048301526060939216906370a082319060240160206040518083038186803b158015610f4b57600080fd5b505afa158015610f5f573d6000803e3d6000fd5b505050506040513d601f19601f82011682018060405250810190610f8391906137ac565b9050610f8f8385613b35565b811015610ff8576040517f08c379a000000000000000000000000000000000000000000000000000000000815260206004820152601860248201527f544f4f5f4d414e595f544f4b454e5f52455155455354454400000000000000006044820152606401610569565b8267ffffffffffffffff81111561101157611011613d5e565b60405190808252806020026020018201604052801561104a57816020015b61103761358f565b81526020019060019003908161102f5790505b50604080516101008101825260018152600260208201526003918101919091526004606082015260056080820152600660a0820152600760c0820152600860e082015290925060005b848110156112c5576000805473ffffffffffffffffffffffffffffffffffffffff16632f745c59896110c5858b613b35565b6040517fffffffff0000000000000000000000000000000000000000000000000000000060e085901b16815273ffffffffffffffffffffffffffffffffffffffff9092166004830152602482015260440160206040518083038186803b15801561112e57600080fd5b505afa158015611142573d6000803e3d6000fd5b505050506040513d601f19601f8201168201806040525081019061116691906137ac565b6040805160608101825282815260005491517fc87b56dd0000000000000000000000000000000000000000000000000000000081526004810184905292935091602083019173ffffffffffffffffffffffffffffffffffffffff169063c87b56dd9060240160006040518083038186803b1580156111e357600080fd5b505afa1580156111f7573d6000803e3d6000fd5b505050506040513d6000823e601f3d9081017fffffffffffffffffffffffffffffffffffffffffffffffffffffffffffffffe016820160405261123d91908101906136c8565b815260005460209091019061129190849087907f000000000000000000000000000000000000000000000000000000000000000073ffffffffffffffffffffffffffffffffffffffff908116911614612695565b8152508583815181106112a6576112a6613d2f565b602002602001018190525081806112bc90613c64565b92505050611093565b5050509392505050565b73ffffffffffffffffffffffffffffffffffffffff851661134c576040517f08c379a000000000000000000000000000000000000000000000000000000000815260206004820152601160248201527f494e56414c49445f5a45524f5f4c4f4f540000000000000000000000000000006044820152606401610569565b7f000000000000000000000000000000000000000000000000000000000000000073ffffffffffffffffffffffffffffffffffffffff168573ffffffffffffffffffffffffffffffffffffffff1614806113f157507f000000000000000000000000000000000000000000000000000000000000000073ffffffffffffffffffffffffffffffffffffffff168573ffffffffffffffffffffffffffffffffffffffff16145b8061144757507f000000000000000000000000000000000000000000000000000000000000000073ffffffffffffffffffffffffffffffffffffffff168573ffffffffffffffffffffffffffffffffffffffff16145b6114ad576040517f08c379a000000000000000000000000000000000000000000000000000000000815260206004820152600c60248201527f494e56414c4944204c4f4f5400000000000000000000000000000000000000006044820152606401610569565b6114ba8585858585612a60565b5050505050565b600080821180156114f25750817fffffffffffffffffffffffffffffffffffffffffffffffffffffffffffffffff14155b611558576040517f08c379a000000000000000000000000000000000000000000000000000000000815260206004820152600c60248201527f494e56414c49445f4c4f4f5400000000000000000000000000000000000000006044820152606401610569565b6000546115a59060ff7a0100000000000000000000000000000000000000000000000000008204811691790100000000000000000000000000000000000000000000000000900416613b35565b6115b190612a30613b86565b6000546115dd9074010000000000000000000000000000000000000000900464ffffffffff1642613bc3565b11611644576040517f08c379a000000000000000000000000000000000000000000000000000000000815260206004820152601660248201527f52455645414c5f504552494f445f4e4f545f4f564552000000000000000000006044820152606401610569565b6000805b60088160ff16101561175d576000607e5b60ff8116156117205760ff8316600090815260036020526040812081611680600185613bda565b60ff1660ff168152602001908152602001600020549050868114156116ce57846116ab856001613b4d565b60ff166116b89190613b35565b6116c29087613b35565b95506001925050611720565b6000811180156116fe5750807fffffffffffffffffffffffffffffffffffffffffffffffffffffffffffffffff14155b1561170d576001925050611720565b508061171881613c29565b915050611659565b508061174557611731826001613b4d565b61173e9060ff1684613b35565b925061174a565b600092505b508061175581613c9d565b915050611648565b5050919050565b6000805461179490790100000000000000000000000000000000000000000000000000900460ff16612a30613b86565b60008054919250906117c59074010000000000000000000000000000000000000000900464ffffffffff1642613bc3565b9050818111611830576040517f08c379a000000000000000000000000000000000000000000000000000000000815260206004820152601960248201527f52455645414c5f504552494f445f4e4f545f53544152544544000000000000006044820152606401610569565b600054611860907a010000000000000000000000000000000000000000000000000000900460ff16612a30613b86565b61186a9083613b35565b81106118d2576040517f08c379a000000000000000000000000000000000000000000000000000000000815260206004820152601260248201527f52455645414c5f504552494f445f4f56455200000000000000000000000000006044820152606401610569565b600085815260026020526040902054600181141561194c576040517f08c379a000000000000000000000000000000000000000000000000000000000815260206004820152601060248201527f414c52454144595f52455645414c4544000000000000000000000000000000006044820152606401610569565b80848787604051602001611962939291906139b7565b60405160208183030381529060405280519060200120146119df576040517f08c379a000000000000000000000000000000000000000000000000000000000815260206004820152600f60248201527f494e56414c49445f5345435245542700000000000000000000000000000000006044820152606401610569565b6000868152600260205260409020600190556119f96135b5565b60005b60088160ff161015611b8e5760006001888360ff1660088110611a2157611a21613d2f565b602002016020810190611a3491906138fb565b611a3e9190613bda565b9050828160ff1660088110611a5557611a55613d2f565b60200201805190611a6582613c9d565b60ff90811690915260008054909250611abf918c91908516907f000000000000000000000000000000000000000000000000000000000000000073ffffffffffffffffffffffffffffffffffffffff908116911614612c6f565b60ff80851660009081526003602090815260408083209385168352929052205490915080611b0e5760ff80851660009081526003602090815260408083209386168352929052208b9055611b78565b807fffffffffffffffffffffffffffffffffffffffffffffffffffffffffffffffff14611b785760ff80851660009081526003602090815260408083209386168352929052207fffffffffffffffffffffffffffffffffffffffffffffffffffffffffffffffff90555b5050508080611b8690613c9d565b9150506119fc565b5060005b60088160ff161015611c3657818160ff1660088110611bb357611bb3613d2f565b602002015160ff16600114611c24576040517f08c379a000000000000000000000000000000000000000000000000000000000815260206004820152600c60248201527f494e56414c49445f4445434b00000000000000000000000000000000000000006044820152606401610569565b80611c2e81613c9d565b915050611b92565b50867f623ee6c2bd9ad515164ba132cb8f630acf54c0fd1e1118074c75676d8b41bab787604051611c679190613ad0565b60405180910390a250505050505050565b60005473ffffffffffffffffffffffffffffffffffffffff82811691161415611cfd576040517f08c379a000000000000000000000000000000000000000000000000000000000815260206004820152600d60248201527f494e56414c49445f4552433230000000000000000000000000000000000000006044820152606401610569565b6000611d0761271b565b509091505073ffffffffffffffffffffffffffffffffffffffff81163314611d8b576040517f08c379a000000000000000000000000000000000000000000000000000000000815260206004820152600a60248201527f4e4f545f57494e4e4552000000000000000000000000000000000000000000006044820152606401610569565b6040517f70a0823100000000000000000000000000000000000000000000000000000000815230600482015273ffffffffffffffffffffffffffffffffffffffff83169063a9059cbb90339083906370a082319060240160206040518083038186803b158015611dfa57600080fd5b505afa158015611e0e573d6000803e3d6000fd5b505050506040513d601f19601f82011682018060405250810190611e3291906137ac565b6040517fffffffff0000000000000000000000000000000000000000000000000000000060e085901b16815273ffffffffffffffffffffffffffffffffffffffff90921660048301526024820152604401602060405180830381600087803b158015611e9d57600080fd5b505af1158015611eb1573d6000803e3d6000fd5b505050506040513d601f19601f82011682018060405250810190611ed59190613625565b505050565b600054611f0990790100000000000000000000000000000000000000000000000000900460ff16612a30613b86565b600054611f359074010000000000000000000000000000000000000000900464ffffffffff1642613bc3565b10611f9c576040517f08c379a000000000000000000000000000000000000000000000000000000000815260206004820152601260248201527f434f4d4d49545f504552494f445f4f56455200000000000000000000000000006044820152606401610569565b6001811415612007576040517f08c379a000000000000000000000000000000000000000000000000000000000815260206004820152600c60248201527f494e56414c4944204841534800000000000000000000000000000000000000006044820152606401610569565b6000828152600260209081526040808320849055600190915280822080547fffffffffffffffffffffffff00000000000000000000000000000000000000001633908117909155915490517f23b872dd00000000000000000000000000000000000000000000000000000000815260048101929092523060248301526044820184905273ffffffffffffffffffffffffffffffffffffffff16906323b872dd90606401600060405180830381600087803b1580156120c457600080fd5b505af11580156120d8573d6000803e3d6000fd5b50506040518381528492503391507f192b0f1468348c5b80c08a20c51326bcee8ea98f2ed5e7b813b6b24e279255029060200160405180910390a35050565b600061212886868686866001612d50565b9695505050505050565b61213a61358f565b60408051610100810182526001815260026020808301919091526003828401526004606080840182905260056080850152600660a0850152600760c0850152600860e08501528451908101855286815260005494517fc87b56dd00000000000000000000000000000000000000000000000000000000815291820187905292939183019173ffffffffffffffffffffffffffffffffffffffff169063c87b56dd9060240160006040518083038186803b1580156121f657600080fd5b505afa15801561220a573d6000803e3d6000fd5b505050506040513d6000823e601f3d9081017fffffffffffffffffffffffffffffffffffffffffffffffffffffffffffffffe016820160405261225091908101906136c8565b81526000546020909101906122a490869085907f000000000000000000000000000000000000000000000000000000000000000073ffffffffffffffffffffffffffffffffffffffff908116911614612695565b90529392505050565b6000547c0100000000000000000000000000000000000000000000000000000000900460ff16612339576040517f08c379a000000000000000000000000000000000000000000000000000000000815260206004820152600e60248201527f4e4f5f4c4f4f545f544f5f57494e0000000000000000000000000000000000006044820152606401610569565b60005460ff7b0100000000000000000000000000000000000000000000000000000082048116916123a8917a0100000000000000000000000000000000000000000000000000008204811691790100000000000000000000000000000000000000000000000000900416613b35565b6123b29190613b35565b6123be90612a30613b86565b6000546123ea9074010000000000000000000000000000000000000000900464ffffffffff1642613bc3565b10612451576040517f08c379a000000000000000000000000000000000000000000000000000000000815260206004820152601360248201527f564943544f52595f504552494f445f4f564552000000000000000000000000006044820152606401610569565b600061245b61271b565b509091505073ffffffffffffffffffffffffffffffffffffffff811633146124df576040517f08c379a000000000000000000000000000000000000000000000000000000000815260206004820152600a60248201527f4e4f545f57494e4e4552000000000000000000000000000000000000000000006044820152606401610569565b60008281526001602052604090205473ffffffffffffffffffffffffffffffffffffffff163381141561256e576040517f08c379a000000000000000000000000000000000000000000000000000000000815260206004820152600d60248201527f414c52454144595f4f574e4552000000000000000000000000000000000000006044820152606401610569565b6000546040517f42842e0e0000000000000000000000000000000000000000000000000000000081523060048201523360248201526044810185905273ffffffffffffffffffffffffffffffffffffffff909116906342842e0e90606401600060405180830381600087803b1580156125e657600080fd5b505af11580156125fa573d6000803e3d6000fd5b5050600080547fffffffffffffff0000000000ffffffffffffffffffffffffffffffffffffffff167401000000000000000000000000000000000000000017815560405186935073ffffffffffffffffffffffffffffffffffffffff8516925033917f0e8ee02dcd808c59c531ff08aaa928ebb99be178ce4babf9a2c12820d6acde3e91a4505050565b600061212886868686866000612d50565b61269d6135b5565b60005b60088160ff161015612713576126df856001868460ff16600881106126c7576126c7613d2f565b60200201516126d69190613bda565b60ff1685612c6f565b828260ff16600881106126f4576126f4613d2f565b60ff90921660209290920201528061270b81613c9d565b9150506126a0565b509392505050565b600080548190819061276d9060ff7a0100000000000000000000000000000000000000000000000000008204811691790100000000000000000000000000000000000000000000000000900416613b35565b61277990612a30613b86565b6000546127a59074010000000000000000000000000000000000000000900464ffffffffff1642613bc3565b1161280c576040517f08c379a000000000000000000000000000000000000000000000000000000000815260206004820152601660248201527f52455645414c5f504552494f445f4e4f545f4f564552000000000000000000006044820152606401610569565b6128146135b5565b60005b60088160ff1610156128f757607e5b60ff8116156128e45760ff821660009081526003602052604081208161284d600185613bda565b60ff1660ff1681526020019081526020016000205490506000811180156128945750807fffffffffffffffffffffffffffffffffffffffffffffffffffffffffffffffff14155b156128d15780848460ff16600881106128af576128af613d2f565b60200201525073ffffffffffffffffffffffffffffffffffffffff95506128e4565b50806128dc81613c29565b915050612826565b50806128ef81613c9d565b915050612817565b5073ffffffffffffffffffffffffffffffffffffffff8085161461292357506000938493508392509050565b60005b60088160ff161015612a3257600080805b60088160ff1610156129ef57848160ff166008811061295857612958613d2f565b602002015161297d5761296c816001613b4d565b6129769084613b4d565b92506129dd565b848460ff166008811061299257612992613d2f565b6020020151858260ff16600881106129ac576129ac613d2f565b602002015114156129dd576129c2816001613b4d565b6129cc9084613b4d565b6129d69083613b4d565b9150600092505b806129e781613c9d565b915050612937565b50848160ff1610612a1d57838360ff1660088110612a0f57612a0f613d2f565b602002015195508060ff1694505b50508080612a2a90613c9d565b915050612926565b505060008281526001602052604090205473ffffffffffffffffffffffffffffffffffffffff169391925090565b60005474010000000000000000000000000000000000000000900464ffffffffff1615612ae9576040517f08c379a000000000000000000000000000000000000000000000000000000000815260206004820152601360248201527f414c52454144595f494e495449414c49534544000000000000000000000000006044820152606401610569565b6000805473ffffffffffffffffffffffffffffffffffffffff969096167fffffff00ffffffffffffffff0000000000000000000000000000000000000000909616959095177c010000000000000000000000000000000000000000000000000000000094151594909402939093177fffffffffffff000000000000ffffffffffffffffffffffffffffffffffffffff16740100000000000000000000000000000000000000004264ffffffffff16027fffffffffffff00ffffffffffffffffffffffffffffffffffffffffffffffffff161779010000000000000000000000000000000000000000000000000060ff93841602177fffffffff0000ffffffffffffffffffffffffffffffffffffffffffffffffffff167a010000000000000000000000000000000000000000000000000000918316919091027fffffffff00ffffffffffffffffffffffffffffffffffffffffffffffffffffff16177b010000000000000000000000000000000000000000000000000000009290911691909102179055565b6000806000612c7f86868661301a565b91509150600e8111612c9357506003612cb9565b8060131415612ca457506001612cb9565b8060141415612cb557506000612cb9565b5060025b84612cd257612cc982607d613bc3565b92505050612d49565b6006851015612d125781612ce7600187613bc3565b612cf290600f613b86565b612cfd906012613b35565b612d079190613b35565b612cc990607d613bc3565b8460061415612d325780612d27836004613b86565b612cfd90605d613b35565b80612d3e836004613b86565b612cfd906069613b35565b9392505050565b7f360894a13ba1a3210667c828492db98dca3e2076cc3735a920a3ca505d382bbc5460009073ffffffffffffffffffffffffffffffffffffffff8116612d935750305b6000612d9e82613324565b90508315612ef5576040517f506c0e8600000000000000000000000000000000000000000000000000000000815273ffffffffffffffffffffffffffffffffffffffff8a81166004830152891515602483015260ff808a16604484015280891660648401528716608483015282169063506c0e869060a401600060405180830381600087803b158015612e3057600080fd5b505af1158015612e44573d6000803e3d6000fd5b50506040517f40b197f300000000000000000000000000000000000000000000000000000000815273ffffffffffffffffffffffffffffffffffffffff8481166004830152600160248301527f00000000000000000000000000000000000000000000000000000000000000001692506340b197f39150604401600060405180830381600087803b158015612ed857600080fd5b505af1158015612eec573d6000803e3d6000fd5b50505050612f98565b6040517f8e76c69200000000000000000000000000000000000000000000000000000000815273ffffffffffffffffffffffffffffffffffffffff8a81166004830152891515602483015260ff808a166044840152808916606484015287166084830152821690638e76c6929060a401600060405180830381600087803b158015612f7f57600080fd5b505af1158015612f93573d6000803e3d6000fd5b505050505b60408051891515815260ff8981166020830152888116828401528716606082015273ffffffffffffffffffffffffffffffffffffffff838116608083015286151560a08301529151918b16917f3c435f0f4c8d3281c30467f5800662ad76dda5306fceb1c95958c661e961da849181900360c00190a298975050505050505050565b60408051808201909152600681527f574541504f4e0000000000000000000000000000000000000000000000000000602082015260009081906012600186141561309b57505060408051808201909152600581527f43484553540000000000000000000000000000000000000000000000000000006020820152600f61323b565b85600214156130e157505060408051808201909152600481527f48454144000000000000000000000000000000000000000000000000000000006020820152600f61323b565b856003141561312757505060408051808201909152600581527f57414953540000000000000000000000000000000000000000000000000000006020820152600f61323b565b856004141561316d57505060408051808201909152600481527f464f4f54000000000000000000000000000000000000000000000000000000006020820152600f61323b565b85600514156131b357505060408051808201909152600481527f48414e44000000000000000000000000000000000000000000000000000000006020820152600f61323b565b85600614156131f957505060408051808201909152600481527f4e45434b000000000000000000000000000000000000000000000000000000006020820152600361323b565b856007141561323b57505060408051808201909152600481527f52494e4700000000000000000000000000000000000000000000000000000000602082015260055b600085158061324b5750611f4188105b15613289576132828361325d8a613406565b60405160200161326e929190613a21565b604051602081830303815290604052613540565b9050613300565b6040517fffffffffffffffffffffffffffffffffffffffff00000000000000000000000060608a901b1660208201526132fd908490603401604080517fffffffffffffffffffffffffffffffffffffffffffffffffffffffffffffffe08184030181529082905261326e9291602001613a21565b90505b61330a8282613cbd565b9450613317601582613cbd565b9350505050935093915050565b60006040517f3d602d80600a3d3981f3363d3d373d3d3d363d7300000000000000000000000081528260601b60148201527f5af43d82803e903d91602b57fd5bf3000000000000000000000000000000000060288201526037816000f091505073ffffffffffffffffffffffffffffffffffffffff8116613401576040517f08c379a000000000000000000000000000000000000000000000000000000000815260206004820152601660248201527f455243313136373a20637265617465206661696c6564000000000000000000006044820152606401610569565b919050565b60608161344657505060408051808201909152600181527f3000000000000000000000000000000000000000000000000000000000000000602082015290565b8160005b8115613470578061345a81613c64565b91506134699050600a83613b72565b915061344a565b60008167ffffffffffffffff81111561348b5761348b613d5e565b6040519080825280601f01601f1916602001820160405280156134b5576020820181803683370190505b5090505b8415613538576134ca600183613bc3565b91506134d7600a86613cbd565b6134e2906030613b35565b60f81b8183815181106134f7576134f7613d2f565b60200101907effffffffffffffffffffffffffffffffffffffffffffffffffffffffffffff1916908160001a905350613531600a86613b72565b94506134b9565b949350505050565b6000816040516020016135539190613a05565b604080517fffffffffffffffffffffffffffffffffffffffffffffffffffffffffffffffe0818403018152919052805160209091012092915050565b604051806060016040528060008152602001606081526020016135b06135b5565b905290565b6040518061010001604052806008906020820280368337509192915050565b803561340181613db2565b803560ff8116811461340157600080fd5b60008060006060848603121561360557600080fd5b833561361081613d8d565b95602085013595506040909401359392505050565b60006020828403121561363757600080fd5b8151612d4981613db2565b60006020828403121561365457600080fd5b8135612d4981613d8d565b600080600080600060a0868803121561367757600080fd5b853561368281613d8d565b9450602086013561369281613db2565b93506136a0604087016135df565b92506136ae606087016135df565b91506136bc608087016135df565b90509295509295909350565b6000602082840312156136da57600080fd5b815167ffffffffffffffff808211156136f257600080fd5b818401915084601f83011261370657600080fd5b81518181111561371857613718613d5e565b604051601f82017fffffffffffffffffffffffffffffffffffffffffffffffffffffffffffffffe0908116603f0116810190838211818310171561375e5761375e613d5e565b8160405282815287602084870101111561377757600080fd5b613788836020830160208801613bfd565b979650505050505050565b6000602082840312156137a557600080fd5b5035919050565b6000602082840312156137be57600080fd5b5051919050565b600080600061014084860312156137db57600080fd5b833592506101208401858111156137f157600080fd5b60208501925080359150509250925092565b6000806000610140848603121561381957600080fd5b83359250602085603f86011261382e57600080fd5b604051610100810181811067ffffffffffffffff8211171561385257613852613d5e565b6040528086830161012088018981111561386b57600080fd5b60005b600881101561389257613880836135df565b8452928501929185019160010161386e565b5083965061389f816135d4565b955050505050509250925092565b600080604083850312156138c057600080fd5b50508035926020909101359150565b6000806000606084860312156138e457600080fd5b505081359360208301359350604090920135919050565b60006020828403121561390d57600080fd5b612d49826135df565b8060005b600881101561393c57815160ff1684526020938401939091019060010161391a565b50505050565b60006101408251845260208301518160208601528051808387015261016092506139728184880160208501613bfd565b604085015191506139866040870183613916565b601f017fffffffffffffffffffffffffffffffffffffffffffffffffffffffffffffffe01694909401019392505050565b838152600060208481840152604083018460005b60088110156139f25760ff6139df836135df565b16835291830191908301906001016139cb565b5050505061014082019050949350505050565b60008251613a17818460208701613bfd565b9190910192915050565b60008351613a33818460208801613bfd565b835190830190613a47818360208801613bfd565b01949350505050565b6000602080830181845280855180835260408601915060408160051b870101925083870160005b82811015613ac3577fffffffffffffffffffffffffffffffffffffffffffffffffffffffffffffffc0888603018452613ab1858351613942565b94509285019290850190600101613a77565b5092979650505050505050565b6101008101818360005b6008811015613b045760ff613aee836135df565b1683526020928301929190910190600101613ada565b50505092915050565b6101008101613b1c8284613916565b92915050565b602081526000612d496020830184613942565b60008219821115613b4857613b48613cd1565b500190565b600060ff821660ff84168060ff03821115613b6a57613b6a613cd1565b019392505050565b600082613b8157613b81613d00565b500490565b6000817fffffffffffffffffffffffffffffffffffffffffffffffffffffffffffffffff0483118215151615613bbe57613bbe613cd1565b500290565b600082821015613bd557613bd5613cd1565b500390565b600060ff821660ff841680821015613bf457613bf4613cd1565b90039392505050565b60005b83811015613c18578181015183820152602001613c00565b8381111561393c5750506000910152565b600060ff821680613c3c57613c3c613cd1565b7fffffffffffffffffffffffffffffffffffffffffffffffffffffffffffffffff0192915050565b60007fffffffffffffffffffffffffffffffffffffffffffffffffffffffffffffffff821415613c9657613c96613cd1565b5060010190565b600060ff821660ff811415613cb457613cb4613cd1565b60010192915050565b600082613ccc57613ccc613d00565b500690565b7f4e487b7100000000000000000000000000000000000000000000000000000000600052601160045260246000fd5b7f4e487b7100000000000000000000000000000000000000000000000000000000600052601260045260246000fd5b7f4e487b7100000000000000000000000000000000000000000000000000000000600052603260045260246000fd5b7f4e487b7100000000000000000000000000000000000000000000000000000000600052604160045260246000fd5b73ffffffffffffffffffffffffffffffffffffffff81168114613daf57600080fd5b50565b8015158114613daf57600080fdfea26469706673582212201dc0ff870e216fa9962de2f8a3873635d175fc975053b80180c2dce1d905070764736f6c63430008070033",
  "devdoc": {
    "kind": "dev",
    "methods": {},
    "version": 1
  },
  "userdoc": {
    "kind": "user",
    "methods": {
      "getTokenDataOfOwner(address,uint256,uint256)": {
        "notice": "get all info in the minimum calls"
      }
    },
    "version": 1
  },
  "storageLayout": {
    "storage": [
      {
        "astId": 429,
        "contract": "src/YooLoot.sol:YooLoot",
        "label": "_paramaters",
        "offset": 0,
        "slot": "0",
        "type": "t_struct(Parameters)417_storage"
      },
      {
        "astId": 433,
        "contract": "src/YooLoot.sol:YooLoot",
        "label": "_deposits",
        "offset": 0,
        "slot": "1",
        "type": "t_mapping(t_uint256,t_address)"
      },
      {
        "astId": 437,
        "contract": "src/YooLoot.sol:YooLoot",
        "label": "_deckHashes",
        "offset": 0,
        "slot": "2",
        "type": "t_mapping(t_uint256,t_bytes32)"
      },
      {
        "astId": 443,
        "contract": "src/YooLoot.sol:YooLoot",
        "label": "_rounds",
        "offset": 0,
        "slot": "3",
        "type": "t_mapping(t_uint8,t_mapping(t_uint8,t_uint256))"
      }
    ],
    "types": {
      "t_address": {
        "encoding": "inplace",
        "label": "address",
        "numberOfBytes": "20"
      },
      "t_bool": {
        "encoding": "inplace",
        "label": "bool",
        "numberOfBytes": "1"
      },
      "t_bytes32": {
        "encoding": "inplace",
        "label": "bytes32",
        "numberOfBytes": "32"
      },
      "t_contract(ILoot)2623": {
        "encoding": "inplace",
        "label": "contract ILoot",
        "numberOfBytes": "20"
      },
      "t_mapping(t_uint256,t_address)": {
        "encoding": "mapping",
        "key": "t_uint256",
        "label": "mapping(uint256 => address)",
        "numberOfBytes": "32",
        "value": "t_address"
      },
      "t_mapping(t_uint256,t_bytes32)": {
        "encoding": "mapping",
        "key": "t_uint256",
        "label": "mapping(uint256 => bytes32)",
        "numberOfBytes": "32",
        "value": "t_bytes32"
      },
      "t_mapping(t_uint8,t_mapping(t_uint8,t_uint256))": {
        "encoding": "mapping",
        "key": "t_uint8",
        "label": "mapping(uint8 => mapping(uint8 => uint256))",
        "numberOfBytes": "32",
        "value": "t_mapping(t_uint8,t_uint256)"
      },
      "t_mapping(t_uint8,t_uint256)": {
        "encoding": "mapping",
        "key": "t_uint8",
        "label": "mapping(uint8 => uint256)",
        "numberOfBytes": "32",
        "value": "t_uint256"
      },
      "t_struct(Parameters)417_storage": {
        "encoding": "inplace",
        "label": "struct YooLoot.Parameters",
        "members": [
          {
            "astId": 406,
            "contract": "src/YooLoot.sol:YooLoot",
            "label": "loot",
            "offset": 0,
            "slot": "0",
            "type": "t_contract(ILoot)2623"
          },
          {
            "astId": 408,
            "contract": "src/YooLoot.sol:YooLoot",
            "label": "startTime",
            "offset": 20,
            "slot": "0",
            "type": "t_uint40"
          },
          {
            "astId": 410,
            "contract": "src/YooLoot.sol:YooLoot",
            "label": "commit3HPeriod",
            "offset": 25,
            "slot": "0",
            "type": "t_uint8"
          },
          {
            "astId": 412,
            "contract": "src/YooLoot.sol:YooLoot",
            "label": "reveal3HPeriod",
            "offset": 26,
            "slot": "0",
            "type": "t_uint8"
          },
          {
            "astId": 414,
            "contract": "src/YooLoot.sol:YooLoot",
            "label": "winner3HPeriod",
            "offset": 27,
            "slot": "0",
            "type": "t_uint8"
          },
          {
            "astId": 416,
            "contract": "src/YooLoot.sol:YooLoot",
            "label": "winnerGetLoot",
            "offset": 28,
            "slot": "0",
            "type": "t_bool"
          }
        ],
        "numberOfBytes": "32"
      },
      "t_uint256": {
        "encoding": "inplace",
        "label": "uint256",
        "numberOfBytes": "32"
      },
      "t_uint40": {
        "encoding": "inplace",
        "label": "uint40",
        "numberOfBytes": "5"
      },
      "t_uint8": {
        "encoding": "inplace",
        "label": "uint8",
        "numberOfBytes": "1"
      }
    }
  }
}