{
  "address": "0xcC0925082BfB1122534d1a7A33BD1DC990113a39",
  "abi": [
    {
      "inputs": [
        {
          "internalType": "address",
          "name": "_minterAddress",
          "type": "address"
        },
        {
          "internalType": "address",
          "name": "_bridgeMinter",
          "type": "address"
        },
        {
          "internalType": "address",
          "name": "_warpedLoot",
          "type": "address"
        }
      ],
      "stateMutability": "nonpayable",
      "type": "constructor"
    },
    {
      "anonymous": false,
      "inputs": [
        {
          "indexed": true,
          "internalType": "address",
          "name": "owner",
          "type": "address"
        },
        {
          "indexed": true,
          "internalType": "address",
          "name": "approved",
          "type": "address"
        },
        {
          "indexed": true,
          "internalType": "uint256",
          "name": "tokenId",
          "type": "uint256"
        }
      ],
      "name": "Approval",
      "type": "event"
    },
    {
      "anonymous": false,
      "inputs": [
        {
          "indexed": true,
          "internalType": "address",
          "name": "owner",
          "type": "address"
        },
        {
          "indexed": true,
          "internalType": "address",
          "name": "operator",
          "type": "address"
        },
        {
          "indexed": false,
          "internalType": "bool",
          "name": "approved",
          "type": "bool"
        }
      ],
      "name": "ApprovalForAll",
      "type": "event"
    },
    {
      "anonymous": false,
      "inputs": [
        {
          "indexed": true,
          "internalType": "address",
          "name": "_set",
          "type": "address"
        },
        {
          "indexed": false,
          "internalType": "string",
          "name": "_name",
          "type": "string"
        },
        {
          "indexed": false,
          "internalType": "uint256",
          "name": "_start",
          "type": "uint256"
        },
        {
          "indexed": false,
          "internalType": "uint256",
          "name": "_end",
          "type": "uint256"
        }
      ],
      "name": "NewSet",
      "type": "event"
    },
    {
      "anonymous": false,
      "inputs": [
        {
          "indexed": true,
          "internalType": "address",
          "name": "previousOwner",
          "type": "address"
        },
        {
          "indexed": true,
          "internalType": "address",
          "name": "newOwner",
          "type": "address"
        }
      ],
      "name": "OwnershipTransferred",
      "type": "event"
    },
    {
      "anonymous": false,
      "inputs": [
        {
          "indexed": true,
          "internalType": "address",
          "name": "from",
          "type": "address"
        },
        {
          "indexed": true,
          "internalType": "address",
          "name": "to",
          "type": "address"
        },
        {
          "indexed": true,
          "internalType": "uint256",
          "name": "tokenId",
          "type": "uint256"
        }
      ],
      "name": "Transfer",
      "type": "event"
    },
    {
      "inputs": [],
      "name": "LOOT_SUPPLY",
      "outputs": [
        {
          "internalType": "uint256",
          "name": "",
          "type": "uint256"
        }
      ],
      "stateMutability": "view",
      "type": "function"
    },
    {
      "inputs": [
        {
          "internalType": "address",
          "name": "_set",
          "type": "address"
        },
        {
          "internalType": "uint256",
          "name": "_end",
          "type": "uint256"
        }
      ],
      "name": "addSet",
      "outputs": [],
      "stateMutability": "nonpayable",
      "type": "function"
    },
    {
      "inputs": [
        {
          "internalType": "address",
          "name": "to",
          "type": "address"
        },
        {
          "internalType": "uint256",
          "name": "tokenId",
          "type": "uint256"
        }
      ],
      "name": "approve",
      "outputs": [],
      "stateMutability": "nonpayable",
      "type": "function"
    },
    {
      "inputs": [
        {
          "internalType": "address",
          "name": "owner",
          "type": "address"
        }
      ],
      "name": "balanceOf",
      "outputs": [
        {
          "internalType": "uint256",
          "name": "",
          "type": "uint256"
        }
      ],
      "stateMutability": "view",
      "type": "function"
    },
    {
      "inputs": [],
      "name": "baseURI",
      "outputs": [
        {
          "internalType": "string",
          "name": "",
          "type": "string"
        }
      ],
      "stateMutability": "view",
      "type": "function"
    },
    {
      "inputs": [],
      "name": "bridgeMinter",
      "outputs": [
        {
          "internalType": "address",
          "name": "",
          "type": "address"
        }
      ],
      "stateMutability": "view",
      "type": "function"
    },
    {
      "inputs": [
        {
          "internalType": "uint256",
          "name": "tokenId",
          "type": "uint256"
        }
      ],
      "name": "claim",
      "outputs": [],
      "stateMutability": "nonpayable",
      "type": "function"
    },
    {
      "inputs": [
        {
          "internalType": "uint256",
          "name": "tokenId",
          "type": "uint256"
        }
      ],
      "name": "getApproved",
      "outputs": [
        {
          "internalType": "address",
          "name": "",
          "type": "address"
        }
      ],
      "stateMutability": "view",
      "type": "function"
    },
    {
      "inputs": [
        {
          "internalType": "uint256",
          "name": "tokenId",
          "type": "uint256"
        }
      ],
      "name": "getChest",
      "outputs": [
        {
          "internalType": "string",
          "name": "",
          "type": "string"
        }
      ],
      "stateMutability": "view",
      "type": "function"
    },
    {
      "inputs": [
        {
          "internalType": "uint256",
          "name": "tokenId",
          "type": "uint256"
        }
      ],
      "name": "getFoot",
      "outputs": [
        {
          "internalType": "string",
          "name": "",
          "type": "string"
        }
      ],
      "stateMutability": "view",
      "type": "function"
    },
    {
      "inputs": [
        {
          "internalType": "uint256",
          "name": "tokenId",
          "type": "uint256"
        }
      ],
      "name": "getHand",
      "outputs": [
        {
          "internalType": "string",
          "name": "",
          "type": "string"
        }
      ],
      "stateMutability": "view",
      "type": "function"
    },
    {
      "inputs": [
        {
          "internalType": "uint256",
          "name": "tokenId",
          "type": "uint256"
        }
      ],
      "name": "getHead",
      "outputs": [
        {
          "internalType": "string",
          "name": "",
          "type": "string"
        }
      ],
      "stateMutability": "view",
      "type": "function"
    },
    {
      "inputs": [
        {
          "internalType": "uint256",
          "name": "tokenId",
          "type": "uint256"
        }
      ],
      "name": "getNeck",
      "outputs": [
        {
          "internalType": "string",
          "name": "",
          "type": "string"
        }
      ],
      "stateMutability": "view",
      "type": "function"
    },
    {
      "inputs": [
        {
          "internalType": "uint256",
          "name": "tokenId",
          "type": "uint256"
        }
      ],
      "name": "getRing",
      "outputs": [
        {
          "internalType": "string",
          "name": "",
          "type": "string"
        }
      ],
      "stateMutability": "view",
      "type": "function"
    },
    {
      "inputs": [
        {
          "internalType": "uint256",
          "name": "tokenId",
          "type": "uint256"
        }
      ],
      "name": "getSet",
      "outputs": [
        {
          "internalType": "address",
          "name": "",
          "type": "address"
        }
      ],
      "stateMutability": "view",
      "type": "function"
    },
    {
      "inputs": [
        {
          "internalType": "uint256",
          "name": "tokenId",
          "type": "uint256"
        }
      ],
      "name": "getSetInfo",
      "outputs": [
        {
          "components": [
            {
              "internalType": "address",
              "name": "set",
              "type": "address"
            },
            {
              "internalType": "uint256",
              "name": "start",
              "type": "uint256"
            },
            {
              "internalType": "uint256",
              "name": "end",
              "type": "uint256"
            },
            {
              "internalType": "bool",
              "name": "exists",
              "type": "bool"
            }
          ],
          "internalType": "struct Deevy.DeevySet",
          "name": "",
          "type": "tuple"
        }
      ],
      "stateMutability": "view",
      "type": "function"
    },
    {
      "inputs": [
        {
          "internalType": "uint256",
          "name": "tokenId",
          "type": "uint256"
        }
      ],
      "name": "getWaist",
      "outputs": [
        {
          "internalType": "string",
          "name": "",
          "type": "string"
        }
      ],
      "stateMutability": "view",
      "type": "function"
    },
    {
      "inputs": [
        {
          "internalType": "uint256",
          "name": "tokenId",
          "type": "uint256"
        }
      ],
      "name": "getWeapon",
      "outputs": [
        {
          "internalType": "string",
          "name": "",
          "type": "string"
        }
      ],
      "stateMutability": "view",
      "type": "function"
    },
    {
      "inputs": [
        {
          "internalType": "address",
          "name": "owner",
          "type": "address"
        },
        {
          "internalType": "address",
          "name": "operator",
          "type": "address"
        }
      ],
      "name": "isApprovedForAll",
      "outputs": [
        {
          "internalType": "bool",
          "name": "",
          "type": "bool"
        }
      ],
      "stateMutability": "view",
      "type": "function"
    },
    {
      "inputs": [],
      "name": "loot",
      "outputs": [
        {
          "internalType": "address",
          "name": "",
          "type": "address"
        }
      ],
      "stateMutability": "view",
      "type": "function"
    },
    {
      "inputs": [
        {
          "internalType": "uint256",
          "name": "tokenId",
          "type": "uint256"
        }
      ],
      "name": "lootTokenURI",
      "outputs": [
        {
          "internalType": "string",
          "name": "",
          "type": "string"
        }
      ],
      "stateMutability": "view",
      "type": "function"
    },
    {
      "inputs": [],
      "name": "minter",
      "outputs": [
        {
          "internalType": "address",
          "name": "",
          "type": "address"
        }
      ],
      "stateMutability": "view",
      "type": "function"
    },
    {
      "inputs": [
        {
          "internalType": "uint256",
          "name": "tokenId",
          "type": "uint256"
        }
      ],
      "name": "name",
      "outputs": [
        {
          "internalType": "string",
          "name": "",
          "type": "string"
        }
      ],
      "stateMutability": "view",
      "type": "function"
    },
    {
      "inputs": [],
      "name": "name",
      "outputs": [
        {
          "internalType": "string",
          "name": "",
          "type": "string"
        }
      ],
      "stateMutability": "view",
      "type": "function"
    },
    {
      "inputs": [],
      "name": "owner",
      "outputs": [
        {
          "internalType": "address",
          "name": "",
          "type": "address"
        }
      ],
      "stateMutability": "view",
      "type": "function"
    },
    {
      "inputs": [
        {
          "internalType": "uint256",
          "name": "tokenId",
          "type": "uint256"
        }
      ],
      "name": "ownerClaim",
      "outputs": [],
      "stateMutability": "nonpayable",
      "type": "function"
    },
    {
      "inputs": [
        {
          "internalType": "uint256",
          "name": "tokenId",
          "type": "uint256"
        }
      ],
      "name": "ownerOf",
      "outputs": [
        {
          "internalType": "address",
          "name": "",
          "type": "address"
        }
      ],
      "stateMutability": "view",
      "type": "function"
    },
    {
      "inputs": [],
      "name": "renounceOwnership",
      "outputs": [],
      "stateMutability": "nonpayable",
      "type": "function"
    },
    {
      "inputs": [
        {
          "internalType": "address",
          "name": "from",
          "type": "address"
        },
        {
          "internalType": "address",
          "name": "to",
          "type": "address"
        },
        {
          "internalType": "uint256",
          "name": "tokenId",
          "type": "uint256"
        }
      ],
      "name": "safeTransferFrom",
      "outputs": [],
      "stateMutability": "nonpayable",
      "type": "function"
    },
    {
      "inputs": [
        {
          "internalType": "address",
          "name": "from",
          "type": "address"
        },
        {
          "internalType": "address",
          "name": "to",
          "type": "address"
        },
        {
          "internalType": "uint256",
          "name": "tokenId",
          "type": "uint256"
        },
        {
          "internalType": "bytes",
          "name": "_data",
          "type": "bytes"
        }
      ],
      "name": "safeTransferFrom",
      "outputs": [],
      "stateMutability": "nonpayable",
      "type": "function"
    },
    {
      "inputs": [
        {
          "internalType": "address",
          "name": "",
          "type": "address"
        }
      ],
      "name": "setAddresses",
      "outputs": [
        {
          "internalType": "bool",
          "name": "",
          "type": "bool"
        }
      ],
      "stateMutability": "view",
      "type": "function"
    },
    {
      "inputs": [
        {
          "internalType": "address",
          "name": "operator",
          "type": "address"
        },
        {
          "internalType": "bool",
          "name": "approved",
          "type": "bool"
        }
      ],
      "name": "setApprovalForAll",
      "outputs": [],
      "stateMutability": "nonpayable",
      "type": "function"
    },
    {
      "inputs": [
        {
          "internalType": "address",
          "name": "_bridgeMinter",
          "type": "address"
        }
      ],
      "name": "setBridgeMinter",
      "outputs": [],
      "stateMutability": "nonpayable",
      "type": "function"
    },
    {
      "inputs": [
        {
          "internalType": "address",
          "name": "_newMinterAddress",
          "type": "address"
        }
      ],
      "name": "setMinter",
      "outputs": [],
      "stateMutability": "nonpayable",
      "type": "function"
    },
    {
      "inputs": [
        {
          "internalType": "bytes32",
          "name": "",
          "type": "bytes32"
        }
      ],
      "name": "setNames",
      "outputs": [
        {
          "internalType": "bool",
          "name": "",
          "type": "bool"
        }
      ],
      "stateMutability": "view",
      "type": "function"
    },
    {
      "inputs": [
        {
          "internalType": "uint256",
          "name": "",
          "type": "uint256"
        }
      ],
      "name": "sets",
      "outputs": [
        {
          "internalType": "address",
          "name": "set",
          "type": "address"
        },
        {
          "internalType": "uint256",
          "name": "start",
          "type": "uint256"
        },
        {
          "internalType": "uint256",
          "name": "end",
          "type": "uint256"
        },
        {
          "internalType": "bool",
          "name": "exists",
          "type": "bool"
        }
      ],
      "stateMutability": "view",
      "type": "function"
    },
    {
      "inputs": [
        {
          "internalType": "bytes4",
          "name": "interfaceId",
          "type": "bytes4"
        }
      ],
      "name": "supportsInterface",
      "outputs": [
        {
          "internalType": "bool",
          "name": "",
          "type": "bool"
        }
      ],
      "stateMutability": "view",
      "type": "function"
    },
    {
      "inputs": [
        {
          "internalType": "uint256",
          "name": "tokenId",
          "type": "uint256"
        }
      ],
      "name": "symbol",
      "outputs": [
        {
          "internalType": "string",
          "name": "",
          "type": "string"
        }
      ],
      "stateMutability": "view",
      "type": "function"
    },
    {
      "inputs": [],
      "name": "symbol",
      "outputs": [
        {
          "internalType": "string",
          "name": "",
          "type": "string"
        }
      ],
      "stateMutability": "view",
      "type": "function"
    },
    {
      "inputs": [
        {
          "internalType": "uint256",
          "name": "index",
          "type": "uint256"
        }
      ],
      "name": "tokenByIndex",
      "outputs": [
        {
          "internalType": "uint256",
          "name": "",
          "type": "uint256"
        }
      ],
      "stateMutability": "view",
      "type": "function"
    },
    {
      "inputs": [
        {
          "internalType": "address",
          "name": "owner",
          "type": "address"
        },
        {
          "internalType": "uint256",
          "name": "index",
          "type": "uint256"
        }
      ],
      "name": "tokenOfOwnerByIndex",
      "outputs": [
        {
          "internalType": "uint256",
          "name": "",
          "type": "uint256"
        }
      ],
      "stateMutability": "view",
      "type": "function"
    },
    {
      "inputs": [
        {
          "internalType": "uint256",
          "name": "tokenId",
          "type": "uint256"
        }
      ],
      "name": "tokenURI",
      "outputs": [
        {
          "internalType": "string",
          "name": "",
          "type": "string"
        }
      ],
      "stateMutability": "view",
      "type": "function"
    },
    {
      "inputs": [],
      "name": "totalSupply",
      "outputs": [
        {
          "internalType": "uint256",
          "name": "",
          "type": "uint256"
        }
      ],
      "stateMutability": "view",
      "type": "function"
    },
    {
      "inputs": [
        {
          "internalType": "address",
          "name": "from",
          "type": "address"
        },
        {
          "internalType": "address",
          "name": "to",
          "type": "address"
        },
        {
          "internalType": "uint256",
          "name": "tokenId",
          "type": "uint256"
        }
      ],
      "name": "transferFrom",
      "outputs": [],
      "stateMutability": "nonpayable",
      "type": "function"
    },
    {
      "inputs": [
        {
          "internalType": "address",
          "name": "newOwner",
          "type": "address"
        }
      ],
      "name": "transferOwnership",
      "outputs": [],
      "stateMutability": "nonpayable",
      "type": "function"
    },
    {
      "inputs": [
        {
          "internalType": "address",
          "name": "account",
          "type": "address"
        },
        {
          "internalType": "uint256",
          "name": "tokenId",
          "type": "uint256"
        }
      ],
      "name": "warpLoot",
      "outputs": [],
      "stateMutability": "nonpayable",
      "type": "function"
    }
  ],
  "transactionHash": "0xaa3a8742689e6597fe5550a41108d470dcc9ef257f528faec7b96c367aec8dd9",
  "args": [
    "0x61c461EcC993aaDEB7e4b47E96d1B8cC37314B20",
    "0x0000000000000000000000000000000000000000",
    "0x0000000000000000000000000000000000000000"
  ],
  "solcInputHash": "2c16af127483e1706812cbdf023c0c4c",
  "bytecode": "0x6080604052611e63600f553480156200001757600080fd5b506040516200302d3803806200302d8339810160408190526200003a916200028f565b60405180604001604052806005815260200164446565767960d81b81525060405180604001604052806005815260200164444545565960d81b8152506200008e6301ffc9a760e01b6200019460201b60201c565b8151620000a3906006906020850190620001f3565b508051620000b9906007906020840190620001f3565b50620000cc6380ac58cd60e01b62000194565b620000de635b5e139f60e01b62000194565b620000f063780e9d6360e01b62000194565b50506001600a55600062000103620001ef565b600b80546001600160a01b0319166001600160a01b038316908117909155604051919250906000907f8be0079c531659141344cd1fd0a4f28419497f9722a3daafe3b4186f6b6457e0908290a350600d80546001600160a01b039485166001600160a01b031991821617909155600c805493851693821693909317909255600e805491909316911617905562000332565b6001600160e01b03198082161415620001ca5760405162461bcd60e51b8152600401620001c190620002e2565b60405180910390fd5b6001600160e01b0319166000908152602081905260409020805460ff19166001179055565b3390565b828054600181600116156101000203166002900490600052602060002090601f016020900481019282601f106200023657805160ff191683800117855562000266565b8280016001018555821562000266579182015b828111156200026657825182559160200191906001019062000249565b506200027492915062000278565b5090565b5b8082111562000274576000815560010162000279565b600080600060608486031215620002a4578283fd5b8351620002b18162000319565b6020850151909350620002c48162000319565b6040850151909250620002d78162000319565b809150509250925092565b6020808252601c908201527f4552433136353a20696e76616c696420696e7465726661636520696400000000604082015260600190565b6001600160a01b03811681146200032f57600080fd5b50565b612ceb80620003426000396000f3fe608060405234801561001057600080fd5b50600436106102895760003560e01c80636c0360eb1161015c5780639e41b73f116100ce578063d638a37111610087578063d638a37114610572578063d6b2eee814610592578063e985e9c51461059a578063ef68075a146105ad578063f2fde38b146105c0578063fca3b5aa146105d357610289565b80639e41b73f14610500578063a22cb46514610513578063b88d4fde14610526578063c08a5dd514610539578063c87b56dd1461054c578063d47f269e1461055f57610289565b80638da5cb5b116101205780638da5cb5b146104af57806395d89b41146104b75780639720c969146104bf5780639b7b2ab0146104d25780639bdc1b69146104da5780639cb88aa6146104ed57610289565b80636c0360eb146104665780636d3505b41461046e57806370a0823114610481578063715018a61461049457806381d3c4351461049c57610289565b80632f745c59116102005780634f6ccce7116101b95780634f6ccce7146103ef578063555e9f2c146104025780635b227f9b146104155780636352211e1461043857806367209aa81461044b5780636a0b09011461045e57610289565b80632f745c591461037d578063379607f51461039057806342842e0e146103a3578063434f48c4146103b657806346c04da0146103c95780634e41a1fb146103dc57610289565b8063081812fc11610252578063081812fc14610309578063095ea7b31461031c578063097da5fb1461032f5780630e99990d1461034257806318160ddd1461035557806323b872dd1461036a57610289565b8062ad800c1461028e57806301ffc9a7146102b757806302ae6625146102d757806306fdde03146102ec57806307546172146102f4575b600080fd5b6102a161029c3660046123fc565b6105e6565b6040516102ae919061258b565b60405180910390f35b6102ca6102c5366004612414565b610673565b6040516102ae9190612580565b6102ea6102e53660046123d2565b610692565b005b6102a161072d565b6102fc6107c3565b6040516102ae9190612507565b6102fc6103173660046123fc565b6107d2565b6102ea61032a3660046123d2565b610815565b6102ea61033d3660046123d2565b6108ad565b6102a16103503660046123fc565b610d50565b61035d610dfb565b6040516102ae9190612bac565b6102ea6103783660046122b2565b610e0c565b61035d61038b3660046123d2565b610e44565b6102ea61039e3660046123fc565b610e6d565b6102ea6103b13660046122b2565b610ea7565b6102ea6103c43660046123fc565b610ec2565b6102a16103d73660046123fc565b610f69565b6102a16103ea3660046123fc565b610fba565b61035d6103fd3660046123fc565b611002565b6102fc6104103660046123fc565b611018565b6104286104233660046123fc565b611033565b6040516102ae9493929190612558565b6102fc6104463660046123fc565b611067565b6102a16104593660046123fc565b61108f565b61035d6110e0565b6102a16110e6565b6102ca61047c3660046123fc565b611147565b61035d61048f366004612263565b61115c565b6102ea6111a5565b6102ca6104aa366004612263565b61122e565b6102fc611243565b6102a1611252565b6102a16104cd3660046123fc565b6112b3565b6102fc611304565b6102a16104e83660046123fc565b611313565b6102ea6104fb366004612263565b611364565b6102a161050e3660046123fc565b6113c5565b6102ea610521366004612397565b611416565b6102ea6105343660046122f2565b6114e4565b6102a16105473660046123fc565b611523565b6102a161055a3660046123fc565b611574565b6102a161056d3660046123fc565b61162d565b6105856105803660046123fc565b61167e565b6040516102ae9190612b76565b6102fc611742565b6102ca6105a836600461227e565b611751565b6102a16105bb3660046123fc565b61177f565b6102ea6105ce366004612263565b6117d0565b6102ea6105e1366004612263565b611891565b606060006105f383611018565b9050806001600160a01b03166306fdde036040518163ffffffff1660e01b815260040160006040518083038186803b15801561062e57600080fd5b505afa158015610642573d6000803e3d6000fd5b505050506040513d6000823e601f3d908101601f1916820160405261066a919081019061244c565b9150505b919050565b6001600160e01b03191660009081526020819052604090205460ff1690565b6002600a5414156106be5760405162461bcd60e51b81526004016106b590612b3f565b60405180910390fd5b6002600a55600c546001600160a01b031633146106ed5760405162461bcd60e51b81526004016106b590612a8f565b6000811180156106fe5750611f4081105b61071a5760405162461bcd60e51b81526004016106b5906129e2565b61072482826118f2565b50506001600a55565b60068054604080516020601f60026000196101006001881615020190951694909404938401819004810282018101909252828152606093909290918301828280156107b95780601f1061078e576101008083540402835291602001916107b9565b820191906000526020600020905b81548152906001019060200180831161079c57829003601f168201915b5050505050905090565b600d546001600160a01b031681565b60006107dd8261190c565b6107f95760405162461bcd60e51b81526004016106b590612961565b506000908152600460205260409020546001600160a01b031690565b600061082082611067565b9050806001600160a01b0316836001600160a01b031614156108545760405162461bcd60e51b81526004016106b590612a4e565b806001600160a01b0316610866611919565b6001600160a01b031614806108825750610882816105a8611919565b61089e5760405162461bcd60e51b81526004016106b590612843565b6108a8838361191d565b505050565b6108b5611919565b6001600160a01b03166108c6611243565b6001600160a01b0316146108ec5760405162461bcd60e51b81526004016106b5906129ad565b6001600160a01b03821660009081526011602052604090205460ff16156109255760405162461bcd60e51b81526004016106b5906126d4565b6001600160a01b0382166000908152601160205260409020805460ff19166001179055610950612219565b6060836001600160a01b03166306fdde036040518163ffffffff1660e01b815260040160006040518083038186803b15801561098b57600080fd5b505afa15801561099f573d6000803e3d6000fd5b505050506040513d6000823e601f3d908101601f191682016040526109c7919081019061244c565b90506000816040516020016109dc91906124eb565b60408051601f198184030181529190528051602090910120601354909150610b9257600f54841015610a205760405162461bcd60e51b81526004016106b5906127c6565b604080516080810182526001600160a01b03808816808352600060208085018281528587018b81526001606088018181528580526010855288517f6e0956cda88cad152e89927e53611735b61a5c762d1428573c6931b0a5efcb018054919099166001600160a01b03199091161790975591517f6e0956cda88cad152e89927e53611735b61a5c762d1428573c6931b0a5efcb0255517f6e0956cda88cad152e89927e53611735b61a5c762d1428573c6931b0a5efcb035593517f6e0956cda88cad152e89927e53611735b61a5c762d1428573c6931b0a5efcb04805491151560ff19928316179055601380548087019091557f66de8ffda797e3de9c05e8fc57b3bf0ec28a930d40b0d285d93c06501cf6a090018b90558783526012909152858220805490911690931790925592519195507f53be94575c5d85244e2b43b5331a0a40c4cff55382b167429bed0af4b8adcb8591610b82918691899061259e565b60405180910390a2505050610d4c565b60008181526012602052604090205460ff1615610bc15760405162461bcd60e51b81526004016106b5906127f1565b610bc9612219565b5060135460001901600090815260106020908152604091829020825160808101845281546001600160a01b0316815260018281015493820193909352600282015493810184905260039091015460ff161515606082015291018511610c405760405162461bcd60e51b81526004016106b59061281b565b604080516080810182526001600160a01b0380891680835284840151600190810160208086019182528587018c8152606087018481526013805480870182557f66de8ffda797e3de9c05e8fc57b3bf0ec28a930d40b0d285d93c06501cf6a090018f905554600019016000908152601084528981208951815499166001600160a01b03199099169890981788558451888701558251600289015590516003909701805497151560ff199889161790558a81526012909252908790208054909516909217909355915191519351929750927f53be94575c5d85244e2b43b5331a0a40c4cff55382b167429bed0af4b8adcb8592610d3f928892909161259e565b60405180910390a2505050505b5050565b6060600f54821115610d71575060408051602081019091526000815261066e565b600e54604051630e99990d60e01b81526001600160a01b0390911690630e99990d90610da1908590600401612bac565b60006040518083038186803b158015610db957600080fd5b505afa158015610dcd573d6000803e3d6000fd5b505050506040513d6000823e601f3d908101601f19168201604052610df5919081019061244c565b92915050565b6000610e07600261198b565b905090565b610e1d610e17611919565b82611996565b610e395760405162461bcd60e51b81526004016106b590612ab7565b6108a8838383611a1b565b6001600160a01b0382166000908152600160205260408120610e669083611b29565b9392505050565b6002600a541415610e905760405162461bcd60e51b81526004016106b590612b3f565b6002600a55610e9f33826118f2565b506001600a55565b6108a8838383604051806020016040528060008152506114e4565b6002600a541415610ee55760405162461bcd60e51b81526004016106b590612b3f565b6002600a55610ef2611919565b6001600160a01b0316610f03611243565b6001600160a01b031614610f295760405162461bcd60e51b81526004016106b5906129ad565b611f408110158015610f3c575061232781105b610f585760405162461bcd60e51b81526004016106b5906129e2565b610e9f610f63611243565b826118f2565b6060600f54821115610f8a575060408051602081019091526000815261066e565b600e54604051631675f45560e01b81526001600160a01b0390911690631675f45590610da1908590600401612bac565b60606000610fc783611018565b9050806001600160a01b03166395d89b416040518163ffffffff1660e01b815260040160006040518083038186803b15801561062e57600080fd5b600080611010600284611b35565b509392505050565b6000611022612219565b61102b8361167e565b519392505050565b60106020526000908152604090208054600182015460028301546003909301546001600160a01b0390921692909160ff1684565b6000610df582604051806060016040528060298152602001612c8d6029913960029190611b51565b6060600f548211156110b0575060408051602081019091526000815261066e565b600e54604051630ce4135560e31b81526001600160a01b03909116906367209aa890610da1908590600401612bac565b600f5481565b60098054604080516020601f60026000196101006001881615020190951694909404938401819004810282018101909252828152606093909290918301828280156107b95780601f1061078e576101008083540402835291602001916107b9565b60126020526000908152604090205460ff1681565b60006001600160a01b0382166111845760405162461bcd60e51b81526004016106b5906128a0565b6001600160a01b0382166000908152600160205260409020610df59061198b565b6111ad611919565b6001600160a01b03166111be611243565b6001600160a01b0316146111e45760405162461bcd60e51b81526004016106b5906129ad565b600b546040516000916001600160a01b0316907f8be0079c531659141344cd1fd0a4f28419497f9722a3daafe3b4186f6b6457e0908390a3600b80546001600160a01b0319169055565b60116020526000908152604090205460ff1681565b600b546001600160a01b031690565b60078054604080516020601f60026000196101006001881615020190951694909404938401819004810282018101909252828152606093909290918301828280156107b95780601f1061078e576101008083540402835291602001916107b9565b6060600f548211156112d4575060408051602081019091526000815261066e565b600e54604051639720c96960e01b81526001600160a01b0390911690639720c96990610da1908590600401612bac565b600e546001600160a01b031681565b6060600f54821115611334575060408051602081019091526000815261066e565b600e54604051639bdc1b6960e01b81526001600160a01b0390911690639bdc1b6990610da1908590600401612bac565b61136c611919565b6001600160a01b031661137d611243565b6001600160a01b0316146113a35760405162461bcd60e51b81526004016106b5906129ad565b600c80546001600160a01b0319166001600160a01b0392909216919091179055565b6060600f548211156113e6575060408051602081019091526000815261066e565b600e54604051639e41b73f60e01b81526001600160a01b0390911690639e41b73f90610da1908590600401612bac565b61141e611919565b6001600160a01b0316826001600160a01b0316141561144f5760405162461bcd60e51b81526004016106b590612743565b806005600061145c611919565b6001600160a01b03908116825260208083019390935260409182016000908120918716808252919093529120805460ff1916921515929092179091556114a0611919565b6001600160a01b03167f17307eab39ab6107e8899845ad3d59bd9653f200f220920489ca2b5937696c31836040516114d89190612580565b60405180910390a35050565b6114f56114ef611919565b83611996565b6115115760405162461bcd60e51b81526004016106b590612ab7565b61151d84848484611b5e565b50505050565b6060600f54821115611544575060408051602081019091526000815261066e565b600e5460405163c08a5dd560e01b81526001600160a01b039091169063c08a5dd590610da1908590600401612bac565b6060600061158183611018565b90506001600160a01b038116156116175760405163c87b56dd60e01b81526001600160a01b0382169063c87b56dd906115be908690600401612bac565b60006040518083038186803b1580156115d657600080fd5b505afa1580156115ea573d6000803e3d6000fd5b505050506040513d6000823e601f3d908101601f19168201604052611612919081019061244c565b61066a565b5050604080516020810190915260008152919050565b6060600f5482111561164e575060408051602081019091526000815261066e565b600e54604051636a3f934f60e11b81526001600160a01b039091169063d47f269e90610da1908590600401612bac565b611686612219565b60006116e260138054806020026020016040519081016040528092919081815260200182805480156116d757602002820191906000526020600020905b8154815260200190600101908083116116c3575b505050505084611b91565b90506116ec612219565b50600090815260106020908152604091829020825160808101845281546001600160a01b0316815260018201549281019290925260028101549282019290925260039091015460ff161515606082015292915050565b600c546001600160a01b031681565b6001600160a01b03918216600090815260056020908152604080832093909416825291909152205460ff1690565b6060600f548211156117a0575060408051602081019091526000815261066e565b600e546040516377b403ad60e11b81526001600160a01b039091169063ef68075a90610da1908590600401612bac565b6117d8611919565b6001600160a01b03166117e9611243565b6001600160a01b03161461180f5760405162461bcd60e51b81526004016106b5906129ad565b6001600160a01b0381166118355760405162461bcd60e51b81526004016106b590612657565b600b546040516001600160a01b038084169216907f8be0079c531659141344cd1fd0a4f28419497f9722a3daafe3b4186f6b6457e090600090a3600b80546001600160a01b0319166001600160a01b0392909216919091179055565b611899611919565b6001600160a01b03166118aa611243565b6001600160a01b0316146118d05760405162461bcd60e51b81526004016106b5906129ad565b600d80546001600160a01b0319166001600160a01b0392909216919091179055565b610d4c828260405180602001604052806000815250611c51565b6000610df5600283611c84565b3390565b600081815260046020526040902080546001600160a01b0319166001600160a01b038416908117909155819061195282611067565b6001600160a01b03167f8c5be1e5ebec7d5bd14f71427d1e84f3dd0314c0f7b2291e5b200ac8c7c3b92560405160405180910390a45050565b6000610df582611c90565b60006119a18261190c565b6119bd5760405162461bcd60e51b81526004016106b59061277a565b60006119c883611067565b9050806001600160a01b0316846001600160a01b03161480611a035750836001600160a01b03166119f8846107d2565b6001600160a01b0316145b80611a135750611a138185611751565b949350505050565b826001600160a01b0316611a2e82611067565b6001600160a01b031614611a545760405162461bcd60e51b81526004016106b590612a05565b6001600160a01b038216611a7a5760405162461bcd60e51b81526004016106b5906126ff565b611a858383836108a8565b611a9060008261191d565b6001600160a01b0383166000908152600160205260409020611ab29082611c94565b506001600160a01b0382166000908152600160205260409020611ad59082611ca0565b50611ae260028284611cac565b5080826001600160a01b0316846001600160a01b03167fddf252ad1be2c89b69c2b068fc378daa952ba7f163c4a11628f55a4df523b3ef60405160405180910390a4505050565b6000610e668383611cc2565b6000808080611b448686611d07565b9097909650945050505050565b6000611a13848484611d63565b611b69848484611a1b565b611b7584848484611dc2565b61151d5760405162461bcd60e51b81526004016106b590612605565b6000825160001480611bb9575082600184510381518110611bae57fe5b602002602001015182115b15611bc75750600019610df5565b82516000905b80821015611c13576000611be18383611ea1565b905084868281518110611bf057fe5b60200260200101511115611c0657809150611c0d565b8060010192505b50611bcd565b600082118015611c38575083856001840381518110611c2e57fe5b6020026020010151145b15611c495750600019019050610df5565b509050610df5565b611c5b8383611ead565b611c686000848484611dc2565b6108a85760405162461bcd60e51b81526004016106b590612605565b6000610e668383611f71565b5490565b6000610e668383611f89565b6000610e66838361204f565b6000611a1384846001600160a01b038516612099565b81546000908210611ce55760405162461bcd60e51b81526004016106b5906125c3565b826000018281548110611cf457fe5b9060005260206000200154905092915050565b815460009081908310611d2c5760405162461bcd60e51b81526004016106b5906128ea565b6000846000018481548110611d3d57fe5b906000526020600020906002020190508060000154816001015492509250509250929050565b60008281526001840160205260408120548281611d935760405162461bcd60e51b81526004016106b5919061258b565b50846000016001820381548110611da657fe5b9060005260206000209060020201600101549150509392505050565b6000611dd6846001600160a01b0316612130565b611de257506001611a13565b6060611e6a630a85bd0160e11b611df7611919565b888787604051602401611e0d949392919061251b565b604051602081830303815290604052906001600160e01b0319166020820180516001600160e01b038381831617835250505050604051806060016040528060328152602001612c5b603291396001600160a01b0388169190612136565b9050600081806020019051810190611e829190612430565b6001600160e01b031916630a85bd0160e11b1492505050949350505050565b60028282180491160190565b6001600160a01b038216611ed35760405162461bcd60e51b81526004016106b59061292c565b611edc8161190c565b15611ef95760405162461bcd60e51b81526004016106b59061269d565b611f05600083836108a8565b6001600160a01b0382166000908152600160205260409020611f279082611ca0565b50611f3460028284611cac565b5060405181906001600160a01b038416906000907fddf252ad1be2c89b69c2b068fc378daa952ba7f163c4a11628f55a4df523b3ef908290a45050565b60009081526001919091016020526040902054151590565b600081815260018301602052604081205480156120455783546000198083019190810190600090879083908110611fbc57fe5b9060005260206000200154905080876000018481548110611fd957fe5b60009182526020808320909101929092558281526001898101909252604090209084019055865487908061200957fe5b60019003818190600052602060002001600090559055866001016000878152602001908152602001600020600090556001945050505050610df5565b6000915050610df5565b600061205b8383611f71565b61209157508154600181810184556000848152602080822090930184905584548482528286019093526040902091909155610df5565b506000610df5565b6000828152600184016020526040812054806120fe575050604080518082018252838152602080820184815286546001818101895560008981528481209551600290930290950191825591519082015586548684528188019092529290912055610e66565b8285600001600183038154811061211157fe5b9060005260206000209060020201600101819055506000915050610e66565b3b151590565b6060611a1384846000858561214a85612130565b6121665760405162461bcd60e51b81526004016106b590612b08565b60006060866001600160a01b0316858760405161218391906124eb565b60006040518083038185875af1925050503d80600081146121c0576040519150601f19603f3d011682016040523d82523d6000602084013e6121c5565b606091505b50915091506121d58282866121e0565b979650505050505050565b606083156121ef575081610e66565b8251156121ff5782518084602001fd5b8160405162461bcd60e51b81526004016106b5919061258b565b604051806080016040528060006001600160a01b0316815260200160008152602001600081526020016000151581525090565b80356001600160a01b0381168114610df557600080fd5b600060208284031215612274578081fd5b610e66838361224c565b60008060408385031215612290578081fd5b61229a848461224c565b91506122a9846020850161224c565b90509250929050565b6000806000606084860312156122c6578081fd5b83356122d181612c2c565b925060208401356122e181612c2c565b929592945050506040919091013590565b60008060008060808587031215612307578081fd5b612311868661224c565b9350612320866020870161224c565b925060408501359150606085013567ffffffffffffffff811115612342578182fd5b8501601f81018713612352578182fd5b803561236561236082612bdc565b612bb5565b818152886020838501011115612379578384fd5b81602084016020830137908101602001929092525092959194509250565b600080604083850312156123a9578182fd5b6123b3848461224c565b9150602083013580151581146123c7578182fd5b809150509250929050565b600080604083850312156123e4578182fd5b6123ee848461224c565b946020939093013593505050565b60006020828403121561240d578081fd5b5035919050565b600060208284031215612425578081fd5b8135610e6681612c44565b600060208284031215612441578081fd5b8151610e6681612c44565b60006020828403121561245d578081fd5b815167ffffffffffffffff811115612473578182fd5b8201601f81018413612483578182fd5b805161249161236082612bdc565b8181528560208385010111156124a5578384fd5b6124b6826020830160208601612c00565b95945050505050565b600081518084526124d7816020860160208601612c00565b601f01601f19169290920160200192915050565b600082516124fd818460208701612c00565b9190910192915050565b6001600160a01b0391909116815260200190565b6001600160a01b038581168252841660208201526040810183905260806060820181905260009061254e908301846124bf565b9695505050505050565b6001600160a01b03949094168452602084019290925260408301521515606082015260800190565b901515815260200190565b600060208252610e6660208301846124bf565b6000606082526125b160608301866124bf565b60208301949094525060400152919050565b60208082526022908201527f456e756d657261626c655365743a20696e646578206f7574206f6620626f756e604082015261647360f01b606082015260800190565b60208082526032908201527f4552433732313a207472616e7366657220746f206e6f6e20455243373231526560408201527131b2b4bb32b91034b6b83632b6b2b73a32b960711b606082015260800190565b60208082526026908201527f4f776e61626c653a206e6577206f776e657220697320746865207a65726f206160408201526564647265737360d01b606082015260800190565b6020808252601c908201527f4552433732313a20746f6b656e20616c7265616479206d696e74656400000000604082015260600190565b6020808252601190820152700854d15517d053149150511657d554d151607a1b604082015260600190565b60208082526024908201527f4552433732313a207472616e7366657220746f20746865207a65726f206164646040820152637265737360e01b606082015260800190565b60208082526019908201527f4552433732313a20617070726f766520746f2063616c6c657200000000000000604082015260600190565b6020808252602c908201527f4552433732313a206f70657261746f7220717565727920666f72206e6f6e657860408201526b34b9ba32b73a103a37b5b2b760a11b606082015260800190565b6020808252601190820152700854d55414131657d1925494d517d4d155607a1b604082015260600190565b60208082526010908201526f215345545f4e414d455f45584953545360801b604082015260600190565b6020808252600e908201526d08539155d7d4d15517d4d510549560921b604082015260600190565b60208082526038908201527f4552433732313a20617070726f76652063616c6c6572206973206e6f74206f7760408201527f6e6572206e6f7220617070726f76656420666f7220616c6c0000000000000000606082015260800190565b6020808252602a908201527f4552433732313a2062616c616e636520717565727920666f7220746865207a65604082015269726f206164647265737360b01b606082015260800190565b60208082526022908201527f456e756d657261626c654d61703a20696e646578206f7574206f6620626f756e604082015261647360f01b606082015260800190565b6020808252818101527f4552433732313a206d696e7420746f20746865207a65726f2061646472657373604082015260600190565b6020808252602c908201527f4552433732313a20617070726f76656420717565727920666f72206e6f6e657860408201526b34b9ba32b73a103a37b5b2b760a11b606082015260800190565b6020808252818101527f4f776e61626c653a2063616c6c6572206973206e6f7420746865206f776e6572604082015260600190565b602080825260099082015268085513d2d15397d25160ba1b604082015260600190565b60208082526029908201527f4552433732313a207472616e73666572206f6620746f6b656e2074686174206960408201526839903737ba1037bbb760b91b606082015260800190565b60208082526021908201527f4552433732313a20617070726f76616c20746f2063757272656e74206f776e656040820152603960f91b606082015260800190565b6020808252600e908201526d10a12924a223a2afa6a4a72a22a960911b604082015260600190565b60208082526031908201527f4552433732313a207472616e736665722063616c6c6572206973206e6f74206f6040820152701ddb995c881b9bdc88185c1c1c9bdd9959607a1b606082015260800190565b6020808252601d908201527f416464726573733a2063616c6c20746f206e6f6e2d636f6e7472616374000000604082015260600190565b6020808252601f908201527f5265656e7472616e637947756172643a207265656e7472616e742063616c6c00604082015260600190565b81516001600160a01b03168152602080830151908201526040808301519082015260609182015115159181019190915260800190565b90815260200190565b60405181810167ffffffffffffffff81118282101715612bd457600080fd5b604052919050565b600067ffffffffffffffff821115612bf2578081fd5b50601f01601f191660200190565b60005b83811015612c1b578181015183820152602001612c03565b8381111561151d5750506000910152565b6001600160a01b0381168114612c4157600080fd5b50565b6001600160e01b031981168114612c4157600080fdfe4552433732313a207472616e7366657220746f206e6f6e20455243373231526563656976657220696d706c656d656e7465724552433732313a206f776e657220717565727920666f72206e6f6e6578697374656e7420746f6b656ea26469706673582212201cd7c092bf0a2b2fbc6e874c058fbbd7f019f737b199274974764377bde0040f64736f6c634300060c0033",
  "devdoc": {
    "kind": "dev",
    "methods": {
      "approve(address,uint256)": {
        "details": "See {IERC721-approve}."
      },
      "balanceOf(address)": {
        "details": "See {IERC721-balanceOf}."
      },
      "baseURI()": {
        "details": "Returns the base URI set via {_setBaseURI}. This will be automatically added as a prefix in {tokenURI} to each token's URI, or to the token ID if no specific URI is set for that token ID."
      },
      "getApproved(uint256)": {
        "details": "See {IERC721-getApproved}."
      },
      "isApprovedForAll(address,address)": {
        "details": "See {IERC721-isApprovedForAll}."
      },
      "name()": {
        "details": "See {IERC721Metadata-name}."
      },
      "owner()": {
        "details": "Returns the address of the current owner."
      },
      "ownerOf(uint256)": {
        "details": "See {IERC721-ownerOf}."
      },
      "renounceOwnership()": {
        "details": "Leaves the contract without owner. It will not be possible to call `onlyOwner` functions anymore. Can only be called by the current owner. NOTE: Renouncing ownership will leave the contract without an owner, thereby removing any functionality that is only available to the owner."
      },
      "safeTransferFrom(address,address,uint256)": {
        "details": "See {IERC721-safeTransferFrom}."
      },
      "safeTransferFrom(address,address,uint256,bytes)": {
        "details": "See {IERC721-safeTransferFrom}."
      },
      "setApprovalForAll(address,bool)": {
        "details": "See {IERC721-setApprovalForAll}."
      },
      "supportsInterface(bytes4)": {
        "details": "See {IERC165-supportsInterface}. Time complexity O(1), guaranteed to always use less than 30 000 gas."
      },
      "symbol()": {
        "details": "See {IERC721Metadata-symbol}."
      },
      "tokenByIndex(uint256)": {
        "details": "See {IERC721Enumerable-tokenByIndex}."
      },
      "tokenOfOwnerByIndex(address,uint256)": {
        "details": "See {IERC721Enumerable-tokenOfOwnerByIndex}."
      },
      "tokenURI(uint256)": {
        "details": "See {IERC721Metadata-tokenURI}."
      },
      "totalSupply()": {
        "details": "See {IERC721Enumerable-totalSupply}."
      },
      "transferFrom(address,address,uint256)": {
        "details": "See {IERC721-transferFrom}."
      },
      "transferOwnership(address)": {
        "details": "Transfers ownership of the contract to a new account (`newOwner`). Can only be called by the current owner."
      }
    },
    "version": 1
  },
  "userdoc": {
    "kind": "user",
    "methods": {},
    "version": 1
  },
  "storageLayout": {
    "storage": [
      {
        "astId": 1944,
        "contract": "src/external/solc_0.6.12/Deevy.sol:Deevy",
        "label": "_supportedInterfaces",
        "offset": 0,
        "slot": "0",
        "type": "t_mapping(t_bytes4,t_bool)"
      },
      {
        "astId": 2308,
        "contract": "src/external/solc_0.6.12/Deevy.sol:Deevy",
        "label": "_holderTokens",
        "offset": 0,
        "slot": "1",
        "type": "t_mapping(t_address,t_struct(UintSet)1188_storage)"
      },
      {
        "astId": 2310,
        "contract": "src/external/solc_0.6.12/Deevy.sol:Deevy",
        "label": "_tokenOwners",
        "offset": 0,
        "slot": "2",
        "type": "t_struct(UintToAddressMap)566_storage"
      },
      {
        "astId": 2314,
        "contract": "src/external/solc_0.6.12/Deevy.sol:Deevy",
        "label": "_tokenApprovals",
        "offset": 0,
        "slot": "4",
        "type": "t_mapping(t_uint256,t_address)"
      },
      {
        "astId": 2320,
        "contract": "src/external/solc_0.6.12/Deevy.sol:Deevy",
        "label": "_operatorApprovals",
        "offset": 0,
        "slot": "5",
        "type": "t_mapping(t_address,t_mapping(t_address,t_bool))"
      },
      {
        "astId": 2322,
        "contract": "src/external/solc_0.6.12/Deevy.sol:Deevy",
        "label": "_name",
        "offset": 0,
        "slot": "6",
        "type": "t_string_storage"
      },
      {
        "astId": 2324,
        "contract": "src/external/solc_0.6.12/Deevy.sol:Deevy",
        "label": "_symbol",
        "offset": 0,
        "slot": "7",
        "type": "t_string_storage"
      },
      {
        "astId": 2328,
        "contract": "src/external/solc_0.6.12/Deevy.sol:Deevy",
        "label": "_tokenURIs",
        "offset": 0,
        "slot": "8",
        "type": "t_mapping(t_uint256,t_string_storage)"
      },
      {
        "astId": 2330,
        "contract": "src/external/solc_0.6.12/Deevy.sol:Deevy",
        "label": "_baseURI",
        "offset": 0,
        "slot": "9",
        "type": "t_string_storage"
      },
      {
        "astId": 3203,
        "contract": "src/external/solc_0.6.12/Deevy.sol:Deevy",
        "label": "_status",
        "offset": 0,
        "slot": "10",
        "type": "t_uint256"
      },
      {
        "astId": 2065,
        "contract": "src/external/solc_0.6.12/Deevy.sol:Deevy",
        "label": "_owner",
        "offset": 0,
        "slot": "11",
        "type": "t_address"
      },
      {
        "astId": 3278,
        "contract": "src/external/solc_0.6.12/Deevy.sol:Deevy",
        "label": "bridgeMinter",
        "offset": 0,
        "slot": "12",
        "type": "t_address"
      },
      {
        "astId": 3280,
        "contract": "src/external/solc_0.6.12/Deevy.sol:Deevy",
        "label": "minter",
        "offset": 0,
        "slot": "13",
        "type": "t_address"
      },
      {
        "astId": 3282,
        "contract": "src/external/solc_0.6.12/Deevy.sol:Deevy",
        "label": "loot",
        "offset": 0,
        "slot": "14",
        "type": "t_address"
      },
      {
        "astId": 3285,
        "contract": "src/external/solc_0.6.12/Deevy.sol:Deevy",
        "label": "LOOT_SUPPLY",
        "offset": 0,
        "slot": "15",
        "type": "t_uint256"
      },
      {
        "astId": 3289,
        "contract": "src/external/solc_0.6.12/Deevy.sol:Deevy",
        "label": "sets",
        "offset": 0,
        "slot": "16",
        "type": "t_mapping(t_uint256,t_struct(DeevySet)3276_storage)"
      },
      {
        "astId": 3293,
        "contract": "src/external/solc_0.6.12/Deevy.sol:Deevy",
        "label": "setAddresses",
        "offset": 0,
        "slot": "17",
        "type": "t_mapping(t_address,t_bool)"
      },
      {
        "astId": 3297,
        "contract": "src/external/solc_0.6.12/Deevy.sol:Deevy",
        "label": "setNames",
        "offset": 0,
        "slot": "18",
        "type": "t_mapping(t_bytes32,t_bool)"
      },
      {
        "astId": 3300,
        "contract": "src/external/solc_0.6.12/Deevy.sol:Deevy",
        "label": "setsMax",
        "offset": 0,
        "slot": "19",
        "type": "t_array(t_uint256)dyn_storage"
      }
    ],
    "types": {
      "t_address": {
        "encoding": "inplace",
        "label": "address",
        "numberOfBytes": "20"
      },
      "t_array(t_bytes32)dyn_storage": {
        "base": "t_bytes32",
        "encoding": "dynamic_array",
        "label": "bytes32[]",
        "numberOfBytes": "32"
      },
      "t_array(t_struct(MapEntry)240_storage)dyn_storage": {
        "base": "t_struct(MapEntry)240_storage",
        "encoding": "dynamic_array",
        "label": "struct EnumerableMap.MapEntry[]",
        "numberOfBytes": "32"
      },
      "t_array(t_uint256)dyn_storage": {
        "base": "t_uint256",
        "encoding": "dynamic_array",
        "label": "uint256[]",
        "numberOfBytes": "32"
      },
      "t_bool": {
        "encoding": "inplace",
        "label": "bool",
        "numberOfBytes": "1"
      },
      "t_bytes32": {
        "encoding": "inplace",
        "label": "bytes32",
        "numberOfBytes": "32"
      },
      "t_bytes4": {
        "encoding": "inplace",
        "label": "bytes4",
        "numberOfBytes": "4"
      },
      "t_mapping(t_address,t_bool)": {
        "encoding": "mapping",
        "key": "t_address",
        "label": "mapping(address => bool)",
        "numberOfBytes": "32",
        "value": "t_bool"
      },
      "t_mapping(t_address,t_mapping(t_address,t_bool))": {
        "encoding": "mapping",
        "key": "t_address",
        "label": "mapping(address => mapping(address => bool))",
        "numberOfBytes": "32",
        "value": "t_mapping(t_address,t_bool)"
      },
      "t_mapping(t_address,t_struct(UintSet)1188_storage)": {
        "encoding": "mapping",
        "key": "t_address",
        "label": "mapping(address => struct EnumerableSet.UintSet)",
        "numberOfBytes": "32",
        "value": "t_struct(UintSet)1188_storage"
      },
      "t_mapping(t_bytes32,t_bool)": {
        "encoding": "mapping",
        "key": "t_bytes32",
        "label": "mapping(bytes32 => bool)",
        "numberOfBytes": "32",
        "value": "t_bool"
      },
      "t_mapping(t_bytes32,t_uint256)": {
        "encoding": "mapping",
        "key": "t_bytes32",
        "label": "mapping(bytes32 => uint256)",
        "numberOfBytes": "32",
        "value": "t_uint256"
      },
      "t_mapping(t_bytes4,t_bool)": {
        "encoding": "mapping",
        "key": "t_bytes4",
        "label": "mapping(bytes4 => bool)",
        "numberOfBytes": "32",
        "value": "t_bool"
      },
      "t_mapping(t_uint256,t_address)": {
        "encoding": "mapping",
        "key": "t_uint256",
        "label": "mapping(uint256 => address)",
        "numberOfBytes": "32",
        "value": "t_address"
      },
      "t_mapping(t_uint256,t_string_storage)": {
        "encoding": "mapping",
        "key": "t_uint256",
        "label": "mapping(uint256 => string)",
        "numberOfBytes": "32",
        "value": "t_string_storage"
      },
      "t_mapping(t_uint256,t_struct(DeevySet)3276_storage)": {
        "encoding": "mapping",
        "key": "t_uint256",
        "label": "mapping(uint256 => struct Deevy.DeevySet)",
        "numberOfBytes": "32",
        "value": "t_struct(DeevySet)3276_storage"
      },
      "t_string_storage": {
        "encoding": "bytes",
        "label": "string",
        "numberOfBytes": "32"
      },
      "t_struct(DeevySet)3276_storage": {
        "encoding": "inplace",
        "label": "struct Deevy.DeevySet",
        "members": [
          {
            "astId": 3269,
            "contract": "src/external/solc_0.6.12/Deevy.sol:Deevy",
            "label": "set",
            "offset": 0,
            "slot": "0",
            "type": "t_address"
          },
          {
            "astId": 3271,
            "contract": "src/external/solc_0.6.12/Deevy.sol:Deevy",
            "label": "start",
            "offset": 0,
            "slot": "1",
            "type": "t_uint256"
          },
          {
            "astId": 3273,
            "contract": "src/external/solc_0.6.12/Deevy.sol:Deevy",
            "label": "end",
            "offset": 0,
            "slot": "2",
            "type": "t_uint256"
          },
          {
            "astId": 3275,
            "contract": "src/external/solc_0.6.12/Deevy.sol:Deevy",
            "label": "exists",
            "offset": 0,
            "slot": "3",
            "type": "t_bool"
          }
        ],
        "numberOfBytes": "128"
      },
      "t_struct(Map)248_storage": {
        "encoding": "inplace",
        "label": "struct EnumerableMap.Map",
        "members": [
          {
            "astId": 243,
            "contract": "src/external/solc_0.6.12/Deevy.sol:Deevy",
            "label": "_entries",
            "offset": 0,
            "slot": "0",
            "type": "t_array(t_struct(MapEntry)240_storage)dyn_storage"
          },
          {
            "astId": 247,
            "contract": "src/external/solc_0.6.12/Deevy.sol:Deevy",
            "label": "_indexes",
            "offset": 0,
            "slot": "1",
            "type": "t_mapping(t_bytes32,t_uint256)"
          }
        ],
        "numberOfBytes": "64"
      },
      "t_struct(MapEntry)240_storage": {
        "encoding": "inplace",
        "label": "struct EnumerableMap.MapEntry",
        "members": [
          {
            "astId": 237,
            "contract": "src/external/solc_0.6.12/Deevy.sol:Deevy",
            "label": "_key",
            "offset": 0,
            "slot": "0",
            "type": "t_bytes32"
          },
          {
            "astId": 239,
            "contract": "src/external/solc_0.6.12/Deevy.sol:Deevy",
            "label": "_value",
            "offset": 0,
            "slot": "1",
            "type": "t_bytes32"
          }
        ],
        "numberOfBytes": "64"
      },
      "t_struct(Set)802_storage": {
        "encoding": "inplace",
        "label": "struct EnumerableSet.Set",
        "members": [
          {
            "astId": 797,
            "contract": "src/external/solc_0.6.12/Deevy.sol:Deevy",
            "label": "_values",
            "offset": 0,
            "slot": "0",
            "type": "t_array(t_bytes32)dyn_storage"
          },
          {
            "astId": 801,
            "contract": "src/external/solc_0.6.12/Deevy.sol:Deevy",
            "label": "_indexes",
            "offset": 0,
            "slot": "1",
            "type": "t_mapping(t_bytes32,t_uint256)"
          }
        ],
        "numberOfBytes": "64"
      },
      "t_struct(UintSet)1188_storage": {
        "encoding": "inplace",
        "label": "struct EnumerableSet.UintSet",
        "members": [
          {
            "astId": 1187,
            "contract": "src/external/solc_0.6.12/Deevy.sol:Deevy",
            "label": "_inner",
            "offset": 0,
            "slot": "0",
            "type": "t_struct(Set)802_storage"
          }
        ],
        "numberOfBytes": "64"
      },
      "t_struct(UintToAddressMap)566_storage": {
        "encoding": "inplace",
        "label": "struct EnumerableMap.UintToAddressMap",
        "members": [
          {
            "astId": 565,
            "contract": "src/external/solc_0.6.12/Deevy.sol:Deevy",
            "label": "_inner",
            "offset": 0,
            "slot": "0",
            "type": "t_struct(Map)248_storage"
          }
        ],
        "numberOfBytes": "64"
      },
      "t_uint256": {
        "encoding": "inplace",
        "label": "uint256",
        "numberOfBytes": "32"
      }
    }
  }
}